{
  "_format": "hh-sol-artifact-1",
  "contractName": "PatikaBears",
  "sourceName": "contracts/PatikaBears.sol",
  "abi": [
    {
      "inputs": [],
      "stateMutability": "nonpayable",
      "type": "constructor"
    },
    {
      "anonymous": false,
      "inputs": [
        {
          "indexed": true,
          "internalType": "address",
          "name": "owner",
          "type": "address"
        },
        {
          "indexed": true,
          "internalType": "address",
          "name": "approved",
          "type": "address"
        },
        {
          "indexed": true,
          "internalType": "uint256",
          "name": "tokenId",
          "type": "uint256"
        }
      ],
      "name": "Approval",
      "type": "event"
    },
    {
      "anonymous": false,
      "inputs": [
        {
          "indexed": true,
          "internalType": "address",
          "name": "owner",
          "type": "address"
        },
        {
          "indexed": true,
          "internalType": "address",
          "name": "operator",
          "type": "address"
        },
        {
          "indexed": false,
          "internalType": "bool",
          "name": "approved",
          "type": "bool"
        }
      ],
      "name": "ApprovalForAll",
      "type": "event"
    },
    {
      "anonymous": false,
      "inputs": [
        {
          "indexed": true,
          "internalType": "address",
          "name": "previousOwner",
          "type": "address"
        },
        {
          "indexed": true,
          "internalType": "address",
          "name": "newOwner",
          "type": "address"
        }
      ],
      "name": "OwnershipTransferred",
      "type": "event"
    },
    {
      "anonymous": false,
      "inputs": [
        {
          "indexed": false,
          "internalType": "address",
          "name": "account",
          "type": "address"
        }
      ],
      "name": "Paused",
      "type": "event"
    },
    {
      "anonymous": false,
      "inputs": [
        {
          "indexed": true,
          "internalType": "address",
          "name": "from",
          "type": "address"
        },
        {
          "indexed": true,
          "internalType": "address",
          "name": "to",
          "type": "address"
        },
        {
          "indexed": true,
          "internalType": "uint256",
          "name": "tokenId",
          "type": "uint256"
        }
      ],
      "name": "Transfer",
      "type": "event"
    },
    {
      "anonymous": false,
      "inputs": [
        {
          "indexed": false,
          "internalType": "address",
          "name": "account",
          "type": "address"
        }
      ],
      "name": "Unpaused",
      "type": "event"
    },
    {
      "inputs": [
        {
          "internalType": "address",
          "name": "to",
          "type": "address"
        },
        {
          "internalType": "uint256",
          "name": "tokenId",
          "type": "uint256"
        }
      ],
      "name": "approve",
      "outputs": [],
      "stateMutability": "nonpayable",
      "type": "function"
    },
    {
      "inputs": [
        {
          "internalType": "address",
          "name": "owner",
          "type": "address"
        }
      ],
      "name": "balanceOf",
      "outputs": [
        {
          "internalType": "uint256",
          "name": "",
          "type": "uint256"
        }
      ],
      "stateMutability": "view",
      "type": "function"
    },
    {
      "inputs": [
        {
          "internalType": "uint256",
          "name": "tokenId",
          "type": "uint256"
        }
      ],
      "name": "getApproved",
      "outputs": [
        {
          "internalType": "address",
          "name": "",
          "type": "address"
        }
      ],
      "stateMutability": "view",
      "type": "function"
    },
    {
      "inputs": [
        {
          "internalType": "address",
          "name": "owner",
          "type": "address"
        },
        {
          "internalType": "address",
          "name": "operator",
          "type": "address"
        }
      ],
      "name": "isApprovedForAll",
      "outputs": [
        {
          "internalType": "bool",
          "name": "",
          "type": "bool"
        }
      ],
      "stateMutability": "view",
      "type": "function"
    },
    {
      "inputs": [],
      "name": "maxPerWallet",
      "outputs": [
        {
          "internalType": "uint256",
          "name": "",
          "type": "uint256"
        }
      ],
      "stateMutability": "view",
      "type": "function"
    },
    {
      "inputs": [],
      "name": "maxSupply",
      "outputs": [
        {
          "internalType": "uint256",
          "name": "",
          "type": "uint256"
        }
      ],
      "stateMutability": "view",
      "type": "function"
    },
    {
      "inputs": [],
      "name": "mintPrice",
      "outputs": [
        {
          "internalType": "uint256",
          "name": "",
          "type": "uint256"
        }
      ],
      "stateMutability": "view",
      "type": "function"
    },
    {
      "inputs": [],
      "name": "name",
      "outputs": [
        {
          "internalType": "string",
          "name": "",
          "type": "string"
        }
      ],
      "stateMutability": "view",
      "type": "function"
    },
    {
      "inputs": [],
      "name": "owner",
      "outputs": [
        {
          "internalType": "address",
          "name": "",
          "type": "address"
        }
      ],
      "stateMutability": "view",
      "type": "function"
    },
    {
      "inputs": [
        {
          "internalType": "uint256",
          "name": "tokenId",
          "type": "uint256"
        }
      ],
      "name": "ownerOf",
      "outputs": [
        {
          "internalType": "address",
          "name": "",
          "type": "address"
        }
      ],
      "stateMutability": "view",
      "type": "function"
    },
    {
      "inputs": [],
      "name": "pause",
      "outputs": [],
      "stateMutability": "nonpayable",
      "type": "function"
    },
    {
      "inputs": [],
      "name": "paused",
      "outputs": [
        {
          "internalType": "bool",
          "name": "",
          "type": "bool"
        }
      ],
      "stateMutability": "view",
      "type": "function"
    },
    {
      "inputs": [],
      "name": "publicSafeMint",
      "outputs": [],
      "stateMutability": "payable",
      "type": "function"
    },
    {
      "inputs": [],
      "name": "renounceOwnership",
      "outputs": [],
      "stateMutability": "nonpayable",
      "type": "function"
    },
    {
      "inputs": [
        {
          "internalType": "address",
          "name": "from",
          "type": "address"
        },
        {
          "internalType": "address",
          "name": "to",
          "type": "address"
        },
        {
          "internalType": "uint256",
          "name": "tokenId",
          "type": "uint256"
        }
      ],
      "name": "safeTransferFrom",
      "outputs": [],
      "stateMutability": "nonpayable",
      "type": "function"
    },
    {
      "inputs": [
        {
          "internalType": "address",
          "name": "from",
          "type": "address"
        },
        {
          "internalType": "address",
          "name": "to",
          "type": "address"
        },
        {
          "internalType": "uint256",
          "name": "tokenId",
          "type": "uint256"
        },
        {
          "internalType": "bytes",
          "name": "data",
          "type": "bytes"
        }
      ],
      "name": "safeTransferFrom",
      "outputs": [],
      "stateMutability": "nonpayable",
      "type": "function"
    },
    {
      "inputs": [],
      "name": "saleIsActive",
      "outputs": [
        {
          "internalType": "bool",
          "name": "",
          "type": "bool"
        }
      ],
      "stateMutability": "view",
      "type": "function"
    },
    {
      "inputs": [
        {
          "internalType": "address",
          "name": "operator",
          "type": "address"
        },
        {
          "internalType": "bool",
          "name": "approved",
          "type": "bool"
        }
      ],
      "name": "setApprovalForAll",
      "outputs": [],
      "stateMutability": "nonpayable",
      "type": "function"
    },
    {
      "inputs": [
        {
          "internalType": "string",
          "name": "newUri",
          "type": "string"
        }
      ],
      "name": "setBaseURI",
      "outputs": [],
      "stateMutability": "nonpayable",
      "type": "function"
    },
    {
      "inputs": [
        {
          "internalType": "bytes4",
          "name": "interfaceId",
          "type": "bytes4"
        }
      ],
      "name": "supportsInterface",
      "outputs": [
        {
          "internalType": "bool",
          "name": "",
          "type": "bool"
        }
      ],
      "stateMutability": "view",
      "type": "function"
    },
    {
      "inputs": [],
      "name": "symbol",
      "outputs": [
        {
          "internalType": "string",
          "name": "",
          "type": "string"
        }
      ],
      "stateMutability": "view",
      "type": "function"
    },
    {
      "inputs": [],
      "name": "toggleIsPublicMintEnabled",
      "outputs": [],
      "stateMutability": "nonpayable",
      "type": "function"
    },
    {
      "inputs": [
        {
          "internalType": "uint256",
          "name": "index",
          "type": "uint256"
        }
      ],
      "name": "tokenByIndex",
      "outputs": [
        {
          "internalType": "uint256",
          "name": "",
          "type": "uint256"
        }
      ],
      "stateMutability": "view",
      "type": "function"
    },
    {
      "inputs": [
        {
          "internalType": "address",
          "name": "owner",
          "type": "address"
        },
        {
          "internalType": "uint256",
          "name": "index",
          "type": "uint256"
        }
      ],
      "name": "tokenOfOwnerByIndex",
      "outputs": [
        {
          "internalType": "uint256",
          "name": "",
          "type": "uint256"
        }
      ],
      "stateMutability": "view",
      "type": "function"
    },
    {
      "inputs": [
        {
          "internalType": "uint256",
          "name": "tokenId",
          "type": "uint256"
        }
      ],
      "name": "tokenURI",
      "outputs": [
        {
          "internalType": "string",
          "name": "",
          "type": "string"
        }
      ],
      "stateMutability": "view",
      "type": "function"
    },
    {
      "inputs": [],
      "name": "totalSupply",
      "outputs": [
        {
          "internalType": "uint256",
          "name": "",
          "type": "uint256"
        }
      ],
      "stateMutability": "view",
      "type": "function"
    },
    {
      "inputs": [
        {
          "internalType": "address",
          "name": "from",
          "type": "address"
        },
        {
          "internalType": "address",
          "name": "to",
          "type": "address"
        },
        {
          "internalType": "uint256",
          "name": "tokenId",
          "type": "uint256"
        }
      ],
      "name": "transferFrom",
      "outputs": [],
      "stateMutability": "nonpayable",
      "type": "function"
    },
    {
      "inputs": [
        {
          "internalType": "address",
          "name": "newOwner",
          "type": "address"
        }
      ],
      "name": "transferOwnership",
      "outputs": [],
      "stateMutability": "nonpayable",
      "type": "function"
    },
    {
      "inputs": [],
      "name": "unpause",
      "outputs": [],
      "stateMutability": "nonpayable",
      "type": "function"
    },
    {
      "inputs": [],
      "name": "withdraw",
      "outputs": [],
      "stateMutability": "nonpayable",
      "type": "function"
    },
    {
      "inputs": [],
      "name": "withdrawWallet",
      "outputs": [
        {
          "internalType": "address payable",
          "name": "",
          "type": "address"
        }
      ],
      "stateMutability": "view",
      "type": "function"
    }
  ],
  "bytecode": "0x60806040526040518060600160405280603681526020016200421f60369139600c9080519060200190620000359291906200029a565b503480156200004357600080fd5b506040518060400160405280600c81526020017f506174696b6120426561727300000000000000000000000000000000000000008152506040518060400160405280600581526020017f50424541520000000000000000000000000000000000000000000000000000008152508160009080519060200190620000c89291906200029a565b508060019080519060200190620000e19291906200029a565b5050506000600a60006101000a81548160ff0219169083151502179055506200011f62000113620001b660201b60201c565b620001be60201b60201c565b66470de4df820000600d819055506014600e819055506005600f819055506000601060006101000a81548160ff02191690831515021790555033601060016101000a81548173ffffffffffffffffffffffffffffffffffffffff021916908373ffffffffffffffffffffffffffffffffffffffff160217905550620001b0600b6200028460201b6200123c1760201c565b620003af565b600033905090565b6000600a60019054906101000a900473ffffffffffffffffffffffffffffffffffffffff16905081600a60016101000a81548173ffffffffffffffffffffffffffffffffffffffff021916908373ffffffffffffffffffffffffffffffffffffffff1602179055508173ffffffffffffffffffffffffffffffffffffffff168173ffffffffffffffffffffffffffffffffffffffff167f8be0079c531659141344cd1fd0a4f28419497f9722a3daafe3b4186f6b6457e060405160405180910390a35050565b6001816000016000828254019250508190555050565b828054620002a8906200034a565b90600052602060002090601f016020900481019282620002cc576000855562000318565b82601f10620002e757805160ff191683800117855562000318565b8280016001018555821562000318579182015b8281111562000317578251825591602001919060010190620002fa565b5b5090506200032791906200032b565b5090565b5b80821115620003465760008160009055506001016200032c565b5090565b600060028204905060018216806200036357607f821691505b602082108114156200037a576200037962000380565b5b50919050565b7f4e487b7100000000000000000000000000000000000000000000000000000000600052602260045260246000fd5b613e6080620003bf6000396000f3fe6080604052600436106101d85760003560e01c80636352211e1161010257806395d89b4111610095578063d5abeb0111610064578063d5abeb0114610653578063e985e9c51461067e578063eb8d2444146106bb578063f2fde38b146106e6576101d8565b806395d89b4114610599578063a22cb465146105c4578063b88d4fde146105ed578063c87b56dd14610616576101d8565b8063715018a6116100d1578063715018a6146105155780638456cb591461052c57806385d178f4146105435780638da5cb5b1461056e576101d8565b80636352211e146104665780636817c76c146104a35780636902b22a146104ce57806370a08231146104d8576101d8565b80633423cec21161017a578063453c231011610149578063453c2310146103aa5780634f6ccce7146103d557806355f804b3146104125780635c975abb1461043b576101d8565b80633423cec21461033c5780633ccfd60b146103535780633f4ba83a1461036a57806342842e0e14610381576101d8565b8063095ea7b3116101b6578063095ea7b31461028257806318160ddd146102ab57806323b872dd146102d65780632f745c59146102ff576101d8565b806301ffc9a7146101dd57806306fdde031461021a578063081812fc14610245575b600080fd5b3480156101e957600080fd5b5061020460048036038101906101ff9190612aeb565b61070f565b60405161021191906130cb565b60405180910390f35b34801561022657600080fd5b5061022f610721565b60405161023c91906130e6565b60405180910390f35b34801561025157600080fd5b5061026c60048036038101906102679190612b8e565b6107b3565b6040516102799190613049565b60405180910390f35b34801561028e57600080fd5b506102a960048036038101906102a49190612aab565b6107f9565b005b3480156102b757600080fd5b506102c0610911565b6040516102cd91906133e8565b60405180910390f35b3480156102e257600080fd5b506102fd60048036038101906102f89190612995565b61091e565b005b34801561030b57600080fd5b5061032660048036038101906103219190612aab565b61097e565b60405161033391906133e8565b60405180910390f35b34801561034857600080fd5b50610351610a23565b005b34801561035f57600080fd5b50610368610a57565b005b34801561037657600080fd5b5061037f610b36565b005b34801561038d57600080fd5b506103a860048036038101906103a39190612995565b610b48565b005b3480156103b657600080fd5b506103bf610b68565b6040516103cc91906133e8565b60405180910390f35b3480156103e157600080fd5b506103fc60048036038101906103f79190612b8e565b610b6e565b60405161040991906133e8565b60405180910390f35b34801561041e57600080fd5b5061043960048036038101906104349190612b45565b610bdf565b005b34801561044757600080fd5b50610450610c01565b60405161045d91906130cb565b60405180910390f35b34801561047257600080fd5b5061048d60048036038101906104889190612b8e565b610c18565b60405161049a9190613049565b60405180910390f35b3480156104af57600080fd5b506104b8610cca565b6040516104c591906133e8565b60405180910390f35b6104d6610cd0565b005b3480156104e457600080fd5b506104ff60048036038101906104fa9190612928565b610e2c565b60405161050c91906133e8565b60405180910390f35b34801561052157600080fd5b5061052a610ee4565b005b34801561053857600080fd5b50610541610ef8565b005b34801561054f57600080fd5b50610558610f0a565b6040516105659190613064565b60405180910390f35b34801561057a57600080fd5b50610583610f30565b6040516105909190613049565b60405180910390f35b3480156105a557600080fd5b506105ae610f5a565b6040516105bb91906130e6565b60405180910390f35b3480156105d057600080fd5b506105eb60048036038101906105e69190612a6b565b610fec565b005b3480156105f957600080fd5b50610614600480360381019061060f91906129e8565b611002565b005b34801561062257600080fd5b5061063d60048036038101906106389190612b8e565b611064565b60405161064a91906130e6565b60405180910390f35b34801561065f57600080fd5b5061066861110b565b60405161067591906133e8565b60405180910390f35b34801561068a57600080fd5b506106a560048036038101906106a09190612955565b611111565b6040516106b291906130cb565b60405180910390f35b3480156106c757600080fd5b506106d06111a5565b6040516106dd91906130cb565b60405180910390f35b3480156106f257600080fd5b5061070d60048036038101906107089190612928565b6111b8565b005b600061071a82611252565b9050919050565b6060600080546107309061365b565b80601f016020809104026020016040519081016040528092919081815260200182805461075c9061365b565b80156107a95780601f1061077e576101008083540402835291602001916107a9565b820191906000526020600020905b81548152906001019060200180831161078c57829003601f168201915b5050505050905090565b60006107be826112cc565b6004600083815260200190815260200160002060009054906101000a900473ffffffffffffffffffffffffffffffffffffffff169050919050565b600061080482610c18565b90508073ffffffffffffffffffffffffffffffffffffffff168373ffffffffffffffffffffffffffffffffffffffff161415610875576040517f08c379a000000000000000000000000000000000000000000000000000000000815260040161086c90613328565b60405180910390fd5b8073ffffffffffffffffffffffffffffffffffffffff16610894611317565b73ffffffffffffffffffffffffffffffffffffffff1614806108c357506108c2816108bd611317565b611111565b5b610902576040517f08c379a00000000000000000000000000000000000000000000000000000000081526004016108f990613288565b60405180910390fd5b61090c838361131f565b505050565b6000600880549050905090565b61092f610929611317565b826113d8565b61096e576040517f08c379a0000000000000000000000000000000000000000000000000000000008152600401610965906133a8565b60405180910390fd5b61097983838361146d565b505050565b600061098983610e2c565b82106109ca576040517f08c379a00000000000000000000000000000000000000000000000000000000081526004016109c190613128565b60405180910390fd5b600660008473ffffffffffffffffffffffffffffffffffffffff1673ffffffffffffffffffffffffffffffffffffffff168152602001908152602001600020600083815260200190815260200160002054905092915050565b610a2b6116d4565b601060009054906101000a900460ff1615601060006101000a81548160ff021916908315150217905550565b610a5f6116d4565b60004790506000601060019054906101000a900473ffffffffffffffffffffffffffffffffffffffff1673ffffffffffffffffffffffffffffffffffffffff1682604051610aac90613034565b60006040518083038185875af1925050503d8060008114610ae9576040519150601f19603f3d011682016040523d82523d6000602084013e610aee565b606091505b5050905080610b32576040517f08c379a0000000000000000000000000000000000000000000000000000000008152600401610b2990613348565b60405180910390fd5b5050565b610b3e6116d4565b610b46611752565b565b610b6383838360405180602001604052806000815250611002565b505050565b600f5481565b6000610b78610911565b8210610bb9576040517f08c379a0000000000000000000000000000000000000000000000000000000008152600401610bb090613388565b60405180910390fd5b60088281548110610bcd57610bcc6137f4565b5b90600052602060002001549050919050565b610be76116d4565b80600c9080519060200190610bfd92919061273c565b5050565b6000600a60009054906101000a900460ff16905090565b6000806002600084815260200190815260200160002060009054906101000a900473ffffffffffffffffffffffffffffffffffffffff169050600073ffffffffffffffffffffffffffffffffffffffff168173ffffffffffffffffffffffffffffffffffffffff161415610cc1576040517f08c379a0000000000000000000000000000000000000000000000000000000008152600401610cb890613308565b60405180910390fd5b80915050919050565b600d5481565b601060009054906101000a900460ff16610d1f576040517f08c379a0000000000000000000000000000000000000000000000000000000008152600401610d1690613208565b60405180910390fd5b600e546001610d2c610911565b610d3691906134d8565b1115610d77576040517f08c379a0000000000000000000000000000000000000000000000000000000008152600401610d6e90613368565b60405180910390fd5b600d543414610dbb576040517f08c379a0000000000000000000000000000000000000000000000000000000008152600401610db2906132c8565b60405180910390fd5b600f54610dc733610e2c565b10610e07576040517f08c379a0000000000000000000000000000000000000000000000000000000008152600401610dfe90613268565b60405180910390fd5b6000610e13600b6117b5565b9050610e1f600b61123c565b610e2933826117c3565b50565b60008073ffffffffffffffffffffffffffffffffffffffff168273ffffffffffffffffffffffffffffffffffffffff161415610e9d576040517f08c379a0000000000000000000000000000000000000000000000000000000008152600401610e9490613248565b60405180910390fd5b600360008373ffffffffffffffffffffffffffffffffffffffff1673ffffffffffffffffffffffffffffffffffffffff168152602001908152602001600020549050919050565b610eec6116d4565b610ef660006117e1565b565b610f006116d4565b610f086118a7565b565b601060019054906101000a900473ffffffffffffffffffffffffffffffffffffffff1681565b6000600a60019054906101000a900473ffffffffffffffffffffffffffffffffffffffff16905090565b606060018054610f699061365b565b80601f0160208091040260200160405190810160405280929190818152602001828054610f959061365b565b8015610fe25780601f10610fb757610100808354040283529160200191610fe2565b820191906000526020600020905b815481529060010190602001808311610fc557829003601f168201915b5050505050905090565b610ffe610ff7611317565b838361190a565b5050565b61101361100d611317565b836113d8565b611052576040517f08c379a0000000000000000000000000000000000000000000000000000000008152600401611049906133a8565b60405180910390fd5b61105e84848484611a77565b50505050565b606061106f82611ad3565b6110ae576040517f08c379a00000000000000000000000000000000000000000000000000000000081526004016110a5906133c8565b60405180910390fd5b60006110b8611b3f565b905060008151116110d85760405180602001604052806000815250611103565b806110e284611bd1565b6040516020016110f3929190613005565b6040516020818303038152906040525b915050919050565b600e5481565b6000600560008473ffffffffffffffffffffffffffffffffffffffff1673ffffffffffffffffffffffffffffffffffffffff16815260200190815260200160002060008373ffffffffffffffffffffffffffffffffffffffff1673ffffffffffffffffffffffffffffffffffffffff16815260200190815260200160002060009054906101000a900460ff16905092915050565b601060009054906101000a900460ff1681565b6111c06116d4565b600073ffffffffffffffffffffffffffffffffffffffff168173ffffffffffffffffffffffffffffffffffffffff161415611230576040517f08c379a000000000000000000000000000000000000000000000000000000000815260040161122790613168565b60405180910390fd5b611239816117e1565b50565b6001816000016000828254019250508190555050565b60007f780e9d63000000000000000000000000000000000000000000000000000000007bffffffffffffffffffffffffffffffffffffffffffffffffffffffff1916827bffffffffffffffffffffffffffffffffffffffffffffffffffffffff191614806112c557506112c482611d32565b5b9050919050565b6112d581611ad3565b611314576040517f08c379a000000000000000000000000000000000000000000000000000000000815260040161130b90613308565b60405180910390fd5b50565b600033905090565b816004600083815260200190815260200160002060006101000a81548173ffffffffffffffffffffffffffffffffffffffff021916908373ffffffffffffffffffffffffffffffffffffffff160217905550808273ffffffffffffffffffffffffffffffffffffffff1661139283610c18565b73ffffffffffffffffffffffffffffffffffffffff167f8c5be1e5ebec7d5bd14f71427d1e84f3dd0314c0f7b2291e5b200ac8c7c3b92560405160405180910390a45050565b6000806113e483610c18565b90508073ffffffffffffffffffffffffffffffffffffffff168473ffffffffffffffffffffffffffffffffffffffff16148061142657506114258185611111565b5b8061146457508373ffffffffffffffffffffffffffffffffffffffff1661144c846107b3565b73ffffffffffffffffffffffffffffffffffffffff16145b91505092915050565b8273ffffffffffffffffffffffffffffffffffffffff1661148d82610c18565b73ffffffffffffffffffffffffffffffffffffffff16146114e3576040517f08c379a00000000000000000000000000000000000000000000000000000000081526004016114da90613188565b60405180910390fd5b600073ffffffffffffffffffffffffffffffffffffffff168273ffffffffffffffffffffffffffffffffffffffff161415611553576040517f08c379a000000000000000000000000000000000000000000000000000000000815260040161154a906131c8565b60405180910390fd5b61155e838383611e14565b61156960008261131f565b6001600360008573ffffffffffffffffffffffffffffffffffffffff1673ffffffffffffffffffffffffffffffffffffffff16815260200190815260200160002060008282546115b9919061355f565b925050819055506001600360008473ffffffffffffffffffffffffffffffffffffffff1673ffffffffffffffffffffffffffffffffffffffff168152602001908152602001600020600082825461161091906134d8565b92505081905550816002600083815260200190815260200160002060006101000a81548173ffffffffffffffffffffffffffffffffffffffff021916908373ffffffffffffffffffffffffffffffffffffffff160217905550808273ffffffffffffffffffffffffffffffffffffffff168473ffffffffffffffffffffffffffffffffffffffff167fddf252ad1be2c89b69c2b068fc378daa952ba7f163c4a11628f55a4df523b3ef60405160405180910390a46116cf838383611e2c565b505050565b6116dc611317565b73ffffffffffffffffffffffffffffffffffffffff166116fa610f30565b73ffffffffffffffffffffffffffffffffffffffff1614611750576040517f08c379a0000000000000000000000000000000000000000000000000000000008152600401611747906132e8565b60405180910390fd5b565b61175a611e31565b6000600a60006101000a81548160ff0219169083151502179055507f5db9ee0a495bf2e6ff9c91a7834c1ba4fdd244a5e8aa4e537bd38aeae4b073aa61179e611317565b6040516117ab9190613049565b60405180910390a1565b600081600001549050919050565b6117dd828260405180602001604052806000815250611e7a565b5050565b6000600a60019054906101000a900473ffffffffffffffffffffffffffffffffffffffff16905081600a60016101000a81548173ffffffffffffffffffffffffffffffffffffffff021916908373ffffffffffffffffffffffffffffffffffffffff1602179055508173ffffffffffffffffffffffffffffffffffffffff168173ffffffffffffffffffffffffffffffffffffffff167f8be0079c531659141344cd1fd0a4f28419497f9722a3daafe3b4186f6b6457e060405160405180910390a35050565b6118af611ed5565b6001600a60006101000a81548160ff0219169083151502179055507f62e78cea01bee320cd4e420270b5ea74000d11b0c9f74754ebdbfc544b05a2586118f3611317565b6040516119009190613049565b60405180910390a1565b8173ffffffffffffffffffffffffffffffffffffffff168373ffffffffffffffffffffffffffffffffffffffff161415611979576040517f08c379a0000000000000000000000000000000000000000000000000000000008152600401611970906131e8565b60405180910390fd5b80600560008573ffffffffffffffffffffffffffffffffffffffff1673ffffffffffffffffffffffffffffffffffffffff16815260200190815260200160002060008473ffffffffffffffffffffffffffffffffffffffff1673ffffffffffffffffffffffffffffffffffffffff16815260200190815260200160002060006101000a81548160ff0219169083151502179055508173ffffffffffffffffffffffffffffffffffffffff168373ffffffffffffffffffffffffffffffffffffffff167f17307eab39ab6107e8899845ad3d59bd9653f200f220920489ca2b5937696c3183604051611a6a91906130cb565b60405180910390a3505050565b611a8284848461146d565b611a8e84848484611f1f565b611acd576040517f08c379a0000000000000000000000000000000000000000000000000000000008152600401611ac490613148565b60405180910390fd5b50505050565b60008073ffffffffffffffffffffffffffffffffffffffff166002600084815260200190815260200160002060009054906101000a900473ffffffffffffffffffffffffffffffffffffffff1673ffffffffffffffffffffffffffffffffffffffff1614159050919050565b6060600c8054611b4e9061365b565b80601f0160208091040260200160405190810160405280929190818152602001828054611b7a9061365b565b8015611bc75780601f10611b9c57610100808354040283529160200191611bc7565b820191906000526020600020905b815481529060010190602001808311611baa57829003601f168201915b5050505050905090565b60606000821415611c19576040518060400160405280600181526020017f30000000000000000000000000000000000000000000000000000000000000008152509050611d2d565b600082905060005b60008214611c4b578080611c34906136be565b915050600a82611c44919061352e565b9150611c21565b60008167ffffffffffffffff811115611c6757611c66613823565b5b6040519080825280601f01601f191660200182016040528015611c995781602001600182028036833780820191505090505b5090505b60008514611d2657600182611cb2919061355f565b9150600a85611cc19190613707565b6030611ccd91906134d8565b60f81b818381518110611ce357611ce26137f4565b5b60200101907effffffffffffffffffffffffffffffffffffffffffffffffffffffffffffff1916908160001a905350600a85611d1f919061352e565b9450611c9d565b8093505050505b919050565b60007f80ac58cd000000000000000000000000000000000000000000000000000000007bffffffffffffffffffffffffffffffffffffffffffffffffffffffff1916827bffffffffffffffffffffffffffffffffffffffffffffffffffffffff19161480611dfd57507f5b5e139f000000000000000000000000000000000000000000000000000000007bffffffffffffffffffffffffffffffffffffffffffffffffffffffff1916827bffffffffffffffffffffffffffffffffffffffffffffffffffffffff1916145b80611e0d5750611e0c826120b6565b5b9050919050565b611e1c611ed5565b611e27838383612120565b505050565b505050565b611e39610c01565b611e78576040517f08c379a0000000000000000000000000000000000000000000000000000000008152600401611e6f90613108565b60405180910390fd5b565b611e848383612234565b611e916000848484611f1f565b611ed0576040517f08c379a0000000000000000000000000000000000000000000000000000000008152600401611ec790613148565b60405180910390fd5b505050565b611edd610c01565b15611f1d576040517f08c379a0000000000000000000000000000000000000000000000000000000008152600401611f1490613228565b60405180910390fd5b565b6000611f408473ffffffffffffffffffffffffffffffffffffffff1661240e565b156120a9578373ffffffffffffffffffffffffffffffffffffffff1663150b7a02611f69611317565b8786866040518563ffffffff1660e01b8152600401611f8b949392919061307f565b602060405180830381600087803b158015611fa557600080fd5b505af1925050508015611fd657506040513d601f19601f82011682018060405250810190611fd39190612b18565b60015b612059573d8060008114612006576040519150601f19603f3d011682016040523d82523d6000602084013e61200b565b606091505b50600081511415612051576040517f08c379a000000000000000000000000000000000000000000000000000000000815260040161204890613148565b60405180910390fd5b805181602001fd5b63150b7a0260e01b7bffffffffffffffffffffffffffffffffffffffffffffffffffffffff1916817bffffffffffffffffffffffffffffffffffffffffffffffffffffffff1916149150506120ae565b600190505b949350505050565b60007f01ffc9a7000000000000000000000000000000000000000000000000000000007bffffffffffffffffffffffffffffffffffffffffffffffffffffffff1916827bffffffffffffffffffffffffffffffffffffffffffffffffffffffff1916149050919050565b61212b838383612431565b600073ffffffffffffffffffffffffffffffffffffffff168373ffffffffffffffffffffffffffffffffffffffff16141561216e5761216981612436565b6121ad565b8173ffffffffffffffffffffffffffffffffffffffff168373ffffffffffffffffffffffffffffffffffffffff16146121ac576121ab838261247f565b5b5b600073ffffffffffffffffffffffffffffffffffffffff168273ffffffffffffffffffffffffffffffffffffffff1614156121f0576121eb816125ec565b61222f565b8273ffffffffffffffffffffffffffffffffffffffff168273ffffffffffffffffffffffffffffffffffffffff161461222e5761222d82826126bd565b5b5b505050565b600073ffffffffffffffffffffffffffffffffffffffff168273ffffffffffffffffffffffffffffffffffffffff1614156122a4576040517f08c379a000000000000000000000000000000000000000000000000000000000815260040161229b906132a8565b60405180910390fd5b6122ad81611ad3565b156122ed576040517f08c379a00000000000000000000000000000000000000000000000000000000081526004016122e4906131a8565b60405180910390fd5b6122f960008383611e14565b6001600360008473ffffffffffffffffffffffffffffffffffffffff1673ffffffffffffffffffffffffffffffffffffffff168152602001908152602001600020600082825461234991906134d8565b92505081905550816002600083815260200190815260200160002060006101000a81548173ffffffffffffffffffffffffffffffffffffffff021916908373ffffffffffffffffffffffffffffffffffffffff160217905550808273ffffffffffffffffffffffffffffffffffffffff16600073ffffffffffffffffffffffffffffffffffffffff167fddf252ad1be2c89b69c2b068fc378daa952ba7f163c4a11628f55a4df523b3ef60405160405180910390a461240a60008383611e2c565b5050565b6000808273ffffffffffffffffffffffffffffffffffffffff163b119050919050565b505050565b6008805490506009600083815260200190815260200160002081905550600881908060018154018082558091505060019003906000526020600020016000909190919091505550565b6000600161248c84610e2c565b612496919061355f565b905060006007600084815260200190815260200160002054905081811461257b576000600660008673ffffffffffffffffffffffffffffffffffffffff1673ffffffffffffffffffffffffffffffffffffffff168152602001908152602001600020600084815260200190815260200160002054905080600660008773ffffffffffffffffffffffffffffffffffffffff1673ffffffffffffffffffffffffffffffffffffffff168152602001908152602001600020600084815260200190815260200160002081905550816007600083815260200190815260200160002081905550505b6007600084815260200190815260200160002060009055600660008573ffffffffffffffffffffffffffffffffffffffff1673ffffffffffffffffffffffffffffffffffffffff16815260200190815260200160002060008381526020019081526020016000206000905550505050565b60006001600880549050612600919061355f565b90506000600960008481526020019081526020016000205490506000600883815481106126305761262f6137f4565b5b906000526020600020015490508060088381548110612652576126516137f4565b5b9060005260206000200181905550816009600083815260200190815260200160002081905550600960008581526020019081526020016000206000905560088054806126a1576126a06137c5565b5b6001900381819060005260206000200160009055905550505050565b60006126c883610e2c565b905081600660008573ffffffffffffffffffffffffffffffffffffffff1673ffffffffffffffffffffffffffffffffffffffff168152602001908152602001600020600083815260200190815260200160002081905550806007600084815260200190815260200160002081905550505050565b8280546127489061365b565b90600052602060002090601f01602090048101928261276a57600085556127b1565b82601f1061278357805160ff19168380011785556127b1565b828001600101855582156127b1579182015b828111156127b0578251825591602001919060010190612795565b5b5090506127be91906127c2565b5090565b5b808211156127db5760008160009055506001016127c3565b5090565b60006127f26127ed84613428565b613403565b90508281526020810184848401111561280e5761280d613857565b5b612819848285613619565b509392505050565b600061283461282f84613459565b613403565b9050828152602081018484840111156128505761284f613857565b5b61285b848285613619565b509392505050565b60008135905061287281613dce565b92915050565b60008135905061288781613de5565b92915050565b60008135905061289c81613dfc565b92915050565b6000815190506128b181613dfc565b92915050565b600082601f8301126128cc576128cb613852565b5b81356128dc8482602086016127df565b91505092915050565b600082601f8301126128fa576128f9613852565b5b813561290a848260208601612821565b91505092915050565b60008135905061292281613e13565b92915050565b60006020828403121561293e5761293d613861565b5b600061294c84828501612863565b91505092915050565b6000806040838503121561296c5761296b613861565b5b600061297a85828601612863565b925050602061298b85828601612863565b9150509250929050565b6000806000606084860312156129ae576129ad613861565b5b60006129bc86828701612863565b93505060206129cd86828701612863565b92505060406129de86828701612913565b9150509250925092565b60008060008060808587031215612a0257612a01613861565b5b6000612a1087828801612863565b9450506020612a2187828801612863565b9350506040612a3287828801612913565b925050606085013567ffffffffffffffff811115612a5357612a5261385c565b5b612a5f878288016128b7565b91505092959194509250565b60008060408385031215612a8257612a81613861565b5b6000612a9085828601612863565b9250506020612aa185828601612878565b9150509250929050565b60008060408385031215612ac257612ac1613861565b5b6000612ad085828601612863565b9250506020612ae185828601612913565b9150509250929050565b600060208284031215612b0157612b00613861565b5b6000612b0f8482850161288d565b91505092915050565b600060208284031215612b2e57612b2d613861565b5b6000612b3c848285016128a2565b91505092915050565b600060208284031215612b5b57612b5a613861565b5b600082013567ffffffffffffffff811115612b7957612b7861385c565b5b612b85848285016128e5565b91505092915050565b600060208284031215612ba457612ba3613861565b5b6000612bb284828501612913565b91505092915050565b612bc4816135a5565b82525050565b612bd381613593565b82525050565b612be2816135b7565b82525050565b6000612bf38261348a565b612bfd81856134a0565b9350612c0d818560208601613628565b612c1681613866565b840191505092915050565b6000612c2c82613495565b612c3681856134bc565b9350612c46818560208601613628565b612c4f81613866565b840191505092915050565b6000612c6582613495565b612c6f81856134cd565b9350612c7f818560208601613628565b80840191505092915050565b6000612c986014836134bc565b9150612ca382613877565b602082019050919050565b6000612cbb602b836134bc565b9150612cc6826138a0565b604082019050919050565b6000612cde6032836134bc565b9150612ce9826138ef565b604082019050919050565b6000612d016026836134bc565b9150612d0c8261393e565b604082019050919050565b6000612d246025836134bc565b9150612d2f8261398d565b604082019050919050565b6000612d47601c836134bc565b9150612d52826139dc565b602082019050919050565b6000612d6a6024836134bc565b9150612d7582613a05565b604082019050919050565b6000612d8d6019836134bc565b9150612d9882613a54565b602082019050919050565b6000612db0601b836134bc565b9150612dbb82613a7d565b602082019050919050565b6000612dd36010836134bc565b9150612dde82613aa6565b602082019050919050565b6000612df66029836134bc565b9150612e0182613acf565b604082019050919050565b6000612e196016836134bc565b9150612e2482613b1e565b602082019050919050565b6000612e3c603e836134bc565b9150612e4782613b47565b604082019050919050565b6000612e5f6020836134bc565b9150612e6a82613b96565b602082019050919050565b6000612e82600f836134bc565b9150612e8d82613bbf565b602082019050919050565b6000612ea56005836134cd565b9150612eb082613be8565b600582019050919050565b6000612ec86020836134bc565b9150612ed382613c11565b602082019050919050565b6000612eeb6018836134bc565b9150612ef682613c3a565b602082019050919050565b6000612f0e6021836134bc565b9150612f1982613c63565b604082019050919050565b6000612f316000836134b1565b9150612f3c82613cb2565b600082019050919050565b6000612f546010836134bc565b9150612f5f82613cb5565b602082019050919050565b6000612f776008836134bc565b9150612f8282613cde565b602082019050919050565b6000612f9a602c836134bc565b9150612fa582613d07565b604082019050919050565b6000612fbd602e836134bc565b9150612fc882613d56565b604082019050919050565b6000612fe06015836134bc565b9150612feb82613da5565b602082019050919050565b612fff8161360f565b82525050565b60006130118285612c5a565b915061301d8284612c5a565b915061302882612e98565b91508190509392505050565b600061303f82612f24565b9150819050919050565b600060208201905061305e6000830184612bca565b92915050565b60006020820190506130796000830184612bbb565b92915050565b60006080820190506130946000830187612bca565b6130a16020830186612bca565b6130ae6040830185612ff6565b81810360608301526130c08184612be8565b905095945050505050565b60006020820190506130e06000830184612bd9565b92915050565b600060208201905081810360008301526131008184612c21565b905092915050565b6000602082019050818103600083015261312181612c8b565b9050919050565b6000602082019050818103600083015261314181612cae565b9050919050565b6000602082019050818103600083015261316181612cd1565b9050919050565b6000602082019050818103600083015261318181612cf4565b9050919050565b600060208201905081810360008301526131a181612d17565b9050919050565b600060208201905081810360008301526131c181612d3a565b9050919050565b600060208201905081810360008301526131e181612d5d565b9050919050565b6000602082019050818103600083015261320181612d80565b9050919050565b6000602082019050818103600083015261322181612da3565b9050919050565b6000602082019050818103600083015261324181612dc6565b9050919050565b6000602082019050818103600083015261326181612de9565b9050919050565b6000602082019050818103600083015261328181612e0c565b9050919050565b600060208201905081810360008301526132a181612e2f565b9050919050565b600060208201905081810360008301526132c181612e52565b9050919050565b600060208201905081810360008301526132e181612e75565b9050919050565b6000602082019050818103600083015261330181612ebb565b9050919050565b6000602082019050818103600083015261332181612ede565b9050919050565b6000602082019050818103600083015261334181612f01565b9050919050565b6000602082019050818103600083015261336181612f47565b9050919050565b6000602082019050818103600083015261338181612f6a565b9050919050565b600060208201905081810360008301526133a181612f8d565b9050919050565b600060208201905081810360008301526133c181612fb0565b9050919050565b600060208201905081810360008301526133e181612fd3565b9050919050565b60006020820190506133fd6000830184612ff6565b92915050565b600061340d61341e565b9050613419828261368d565b919050565b6000604051905090565b600067ffffffffffffffff82111561344357613442613823565b5b61344c82613866565b9050602081019050919050565b600067ffffffffffffffff82111561347457613473613823565b5b61347d82613866565b9050602081019050919050565b600081519050919050565b600081519050919050565b600082825260208201905092915050565b600081905092915050565b600082825260208201905092915050565b600081905092915050565b60006134e38261360f565b91506134ee8361360f565b9250827fffffffffffffffffffffffffffffffffffffffffffffffffffffffffffffffff0382111561352357613522613738565b5b828201905092915050565b60006135398261360f565b91506135448361360f565b92508261355457613553613767565b5b828204905092915050565b600061356a8261360f565b91506135758361360f565b92508282101561358857613587613738565b5b828203905092915050565b600061359e826135ef565b9050919050565b60006135b0826135ef565b9050919050565b60008115159050919050565b60007fffffffff0000000000000000000000000000000000000000000000000000000082169050919050565b600073ffffffffffffffffffffffffffffffffffffffff82169050919050565b6000819050919050565b82818337600083830152505050565b60005b8381101561364657808201518184015260208101905061362b565b83811115613655576000848401525b50505050565b6000600282049050600182168061367357607f821691505b6020821081141561368757613686613796565b5b50919050565b61369682613866565b810181811067ffffffffffffffff821117156136b5576136b4613823565b5b80604052505050565b60006136c98261360f565b91507fffffffffffffffffffffffffffffffffffffffffffffffffffffffffffffffff8214156136fc576136fb613738565b5b600182019050919050565b60006137128261360f565b915061371d8361360f565b92508261372d5761372c613767565b5b828206905092915050565b7f4e487b7100000000000000000000000000000000000000000000000000000000600052601160045260246000fd5b7f4e487b7100000000000000000000000000000000000000000000000000000000600052601260045260246000fd5b7f4e487b7100000000000000000000000000000000000000000000000000000000600052602260045260246000fd5b7f4e487b7100000000000000000000000000000000000000000000000000000000600052603160045260246000fd5b7f4e487b7100000000000000000000000000000000000000000000000000000000600052603260045260246000fd5b7f4e487b7100000000000000000000000000000000000000000000000000000000600052604160045260246000fd5b600080fd5b600080fd5b600080fd5b600080fd5b6000601f19601f8301169050919050565b7f5061757361626c653a206e6f7420706175736564000000000000000000000000600082015250565b7f455243373231456e756d657261626c653a206f776e657220696e646578206f7560008201527f74206f6620626f756e6473000000000000000000000000000000000000000000602082015250565b7f4552433732313a207472616e7366657220746f206e6f6e20455243373231526560008201527f63656976657220696d706c656d656e7465720000000000000000000000000000602082015250565b7f4f776e61626c653a206e6577206f776e657220697320746865207a65726f206160008201527f6464726573730000000000000000000000000000000000000000000000000000602082015250565b7f4552433732313a207472616e736665722066726f6d20696e636f72726563742060008201527f6f776e6572000000000000000000000000000000000000000000000000000000602082015250565b7f4552433732313a20746f6b656e20616c7265616479206d696e74656400000000600082015250565b7f4552433732313a207472616e7366657220746f20746865207a65726f2061646460008201527f7265737300000000000000000000000000000000000000000000000000000000602082015250565b7f4552433732313a20617070726f766520746f2063616c6c657200000000000000600082015250565b7f53616c65206d7573742062652061637469766520746f206d696e740000000000600082015250565b7f5061757361626c653a2070617573656400000000000000000000000000000000600082015250565b7f4552433732313a2061646472657373207a65726f206973206e6f74206120766160008201527f6c6964206f776e65720000000000000000000000000000000000000000000000602082015250565b7f45786565636564206d6178207065722077616c6c657400000000000000000000600082015250565b7f4552433732313a20617070726f76652063616c6c6572206973206e6f7420746f60008201527f6b656e206f776e6572206e6f7220617070726f76656420666f7220616c6c0000602082015250565b7f4552433732313a206d696e7420746f20746865207a65726f2061646472657373600082015250565b7f496e636f72726563742076616c75650000000000000000000000000000000000600082015250565b7f2e6a736f6e000000000000000000000000000000000000000000000000000000600082015250565b7f4f776e61626c653a2063616c6c6572206973206e6f7420746865206f776e6572600082015250565b7f4552433732313a20696e76616c696420746f6b656e2049440000000000000000600082015250565b7f4552433732313a20617070726f76616c20746f2063757272656e74206f776e6560008201527f7200000000000000000000000000000000000000000000000000000000000000602082015250565b50565b7f5472616e73666572206661696c65642e00000000000000000000000000000000600082015250565b7f536f6c64206f7574000000000000000000000000000000000000000000000000600082015250565b7f455243373231456e756d657261626c653a20676c6f62616c20696e646578206f60008201527f7574206f6620626f756e64730000000000000000000000000000000000000000602082015250565b7f4552433732313a2063616c6c6572206973206e6f7420746f6b656e206f776e6560008201527f72206e6f7220617070726f766564000000000000000000000000000000000000602082015250565b7f546f6b656e20646f6573206e6f74206578697374210000000000000000000000600082015250565b613dd781613593565b8114613de257600080fd5b50565b613dee816135b7565b8114613df957600080fd5b50565b613e05816135c3565b8114613e1057600080fd5b50565b613e1c8161360f565b8114613e2757600080fd5b5056fea264697066735822122005a9e3c752203a609c648145b2dc27d1dd7a37e3a60a39e4a689a4ef97147a4c64736f6c63430008070033697066733a2f2f516d6364506754696a714c5574746241515a7a7865347a74513973616f57437751357345627a70715447387346682f",
  "linkReferences": {},
  "deployedLinkReferences": {}
}