{
  "_format": "hh-sol-artifact-1",
  "contractName": "PatikaBears",
  "sourceName": "contracts/PatikaBears.sol",
  "abi": [
    {
      "inputs": [],
      "stateMutability": "nonpayable",
      "type": "constructor"
    },
    {
      "anonymous": false,
      "inputs": [
        {
          "indexed": true,
          "internalType": "address",
          "name": "owner",
          "type": "address"
        },
        {
          "indexed": true,
          "internalType": "address",
          "name": "approved",
          "type": "address"
        },
        {
          "indexed": true,
          "internalType": "uint256",
          "name": "tokenId",
          "type": "uint256"
        }
      ],
      "name": "Approval",
      "type": "event"
    },
    {
      "anonymous": false,
      "inputs": [
        {
          "indexed": true,
          "internalType": "address",
          "name": "owner",
          "type": "address"
        },
        {
          "indexed": true,
          "internalType": "address",
          "name": "operator",
          "type": "address"
        },
        {
          "indexed": false,
          "internalType": "bool",
          "name": "approved",
          "type": "bool"
        }
      ],
      "name": "ApprovalForAll",
      "type": "event"
    },
    {
      "anonymous": false,
      "inputs": [
        {
          "indexed": true,
          "internalType": "address",
          "name": "previousOwner",
          "type": "address"
        },
        {
          "indexed": true,
          "internalType": "address",
          "name": "newOwner",
          "type": "address"
        }
      ],
      "name": "OwnershipTransferred",
      "type": "event"
    },
    {
      "anonymous": false,
      "inputs": [
        {
          "indexed": false,
          "internalType": "address",
          "name": "account",
          "type": "address"
        }
      ],
      "name": "Paused",
      "type": "event"
    },
    {
      "anonymous": false,
      "inputs": [
        {
          "indexed": true,
          "internalType": "address",
          "name": "from",
          "type": "address"
        },
        {
          "indexed": true,
          "internalType": "address",
          "name": "to",
          "type": "address"
        },
        {
          "indexed": true,
          "internalType": "uint256",
          "name": "tokenId",
          "type": "uint256"
        }
      ],
      "name": "Transfer",
      "type": "event"
    },
    {
      "anonymous": false,
      "inputs": [
        {
          "indexed": false,
          "internalType": "address",
          "name": "account",
          "type": "address"
        }
      ],
      "name": "Unpaused",
      "type": "event"
    },
    {
      "inputs": [
        {
          "internalType": "address",
          "name": "to",
          "type": "address"
        },
        {
          "internalType": "uint256",
          "name": "tokenId",
          "type": "uint256"
        }
      ],
      "name": "approve",
      "outputs": [],
      "stateMutability": "nonpayable",
      "type": "function"
    },
    {
      "inputs": [
        {
          "internalType": "address",
          "name": "owner",
          "type": "address"
        }
      ],
      "name": "balanceOf",
      "outputs": [
        {
          "internalType": "uint256",
          "name": "",
          "type": "uint256"
        }
      ],
      "stateMutability": "view",
      "type": "function"
    },
    {
      "inputs": [
        {
          "internalType": "uint256",
          "name": "tokenId",
          "type": "uint256"
        }
      ],
      "name": "getApproved",
      "outputs": [
        {
          "internalType": "address",
          "name": "",
          "type": "address"
        }
      ],
      "stateMutability": "view",
      "type": "function"
    },
    {
      "inputs": [
        {
          "internalType": "address",
          "name": "owner",
          "type": "address"
        },
        {
          "internalType": "address",
          "name": "operator",
          "type": "address"
        }
      ],
      "name": "isApprovedForAll",
      "outputs": [
        {
          "internalType": "bool",
          "name": "",
          "type": "bool"
        }
      ],
      "stateMutability": "view",
      "type": "function"
    },
    {
      "inputs": [],
      "name": "maxPerWallet",
      "outputs": [
        {
          "internalType": "uint256",
          "name": "",
          "type": "uint256"
        }
      ],
      "stateMutability": "view",
      "type": "function"
    },
    {
      "inputs": [],
      "name": "maxSupply",
      "outputs": [
        {
          "internalType": "uint256",
          "name": "",
          "type": "uint256"
        }
      ],
      "stateMutability": "view",
      "type": "function"
    },
    {
      "inputs": [],
      "name": "mintPrice",
      "outputs": [
        {
          "internalType": "uint256",
          "name": "",
          "type": "uint256"
        }
      ],
      "stateMutability": "view",
      "type": "function"
    },
    {
      "inputs": [],
      "name": "name",
      "outputs": [
        {
          "internalType": "string",
          "name": "",
          "type": "string"
        }
      ],
      "stateMutability": "view",
      "type": "function"
    },
    {
      "inputs": [],
      "name": "owner",
      "outputs": [
        {
          "internalType": "address",
          "name": "",
          "type": "address"
        }
      ],
      "stateMutability": "view",
      "type": "function"
    },
    {
      "inputs": [
        {
          "internalType": "uint256",
          "name": "tokenId",
          "type": "uint256"
        }
      ],
      "name": "ownerOf",
      "outputs": [
        {
          "internalType": "address",
          "name": "",
          "type": "address"
        }
      ],
      "stateMutability": "view",
      "type": "function"
    },
    {
      "inputs": [],
      "name": "pause",
      "outputs": [],
      "stateMutability": "nonpayable",
      "type": "function"
    },
    {
      "inputs": [],
      "name": "paused",
      "outputs": [
        {
          "internalType": "bool",
          "name": "",
          "type": "bool"
        }
      ],
      "stateMutability": "view",
      "type": "function"
    },
    {
      "inputs": [],
      "name": "publicSafeMint",
      "outputs": [],
      "stateMutability": "payable",
      "type": "function"
    },
    {
      "inputs": [],
      "name": "renounceOwnership",
      "outputs": [],
      "stateMutability": "nonpayable",
      "type": "function"
    },
    {
      "inputs": [
        {
          "internalType": "address",
          "name": "from",
          "type": "address"
        },
        {
          "internalType": "address",
          "name": "to",
          "type": "address"
        },
        {
          "internalType": "uint256",
          "name": "tokenId",
          "type": "uint256"
        }
      ],
      "name": "safeTransferFrom",
      "outputs": [],
      "stateMutability": "nonpayable",
      "type": "function"
    },
    {
      "inputs": [
        {
          "internalType": "address",
          "name": "from",
          "type": "address"
        },
        {
          "internalType": "address",
          "name": "to",
          "type": "address"
        },
        {
          "internalType": "uint256",
          "name": "tokenId",
          "type": "uint256"
        },
        {
          "internalType": "bytes",
          "name": "data",
          "type": "bytes"
        }
      ],
      "name": "safeTransferFrom",
      "outputs": [],
      "stateMutability": "nonpayable",
      "type": "function"
    },
    {
      "inputs": [],
      "name": "saleIsActive",
      "outputs": [
        {
          "internalType": "bool",
          "name": "",
          "type": "bool"
        }
      ],
      "stateMutability": "view",
      "type": "function"
    },
    {
      "inputs": [
        {
          "internalType": "address",
          "name": "operator",
          "type": "address"
        },
        {
          "internalType": "bool",
          "name": "approved",
          "type": "bool"
        }
      ],
      "name": "setApprovalForAll",
      "outputs": [],
      "stateMutability": "nonpayable",
      "type": "function"
    },
    {
      "inputs": [
        {
          "internalType": "string",
          "name": "newUri",
          "type": "string"
        }
      ],
      "name": "setBaseURI",
      "outputs": [],
      "stateMutability": "nonpayable",
      "type": "function"
    },
    {
      "inputs": [
        {
          "internalType": "bytes4",
          "name": "interfaceId",
          "type": "bytes4"
        }
      ],
      "name": "supportsInterface",
      "outputs": [
        {
          "internalType": "bool",
          "name": "",
          "type": "bool"
        }
      ],
      "stateMutability": "view",
      "type": "function"
    },
    {
      "inputs": [],
      "name": "symbol",
      "outputs": [
        {
          "internalType": "string",
          "name": "",
          "type": "string"
        }
      ],
      "stateMutability": "view",
      "type": "function"
    },
    {
      "inputs": [],
      "name": "toggleIsPublicMintEnabled",
      "outputs": [],
      "stateMutability": "nonpayable",
      "type": "function"
    },
    {
      "inputs": [
        {
          "internalType": "uint256",
          "name": "index",
          "type": "uint256"
        }
      ],
      "name": "tokenByIndex",
      "outputs": [
        {
          "internalType": "uint256",
          "name": "",
          "type": "uint256"
        }
      ],
      "stateMutability": "view",
      "type": "function"
    },
    {
      "inputs": [
        {
          "internalType": "address",
          "name": "owner",
          "type": "address"
        },
        {
          "internalType": "uint256",
          "name": "index",
          "type": "uint256"
        }
      ],
      "name": "tokenOfOwnerByIndex",
      "outputs": [
        {
          "internalType": "uint256",
          "name": "",
          "type": "uint256"
        }
      ],
      "stateMutability": "view",
      "type": "function"
    },
    {
      "inputs": [
        {
          "internalType": "uint256",
          "name": "tokenId",
          "type": "uint256"
        }
      ],
      "name": "tokenURI",
      "outputs": [
        {
          "internalType": "string",
          "name": "",
          "type": "string"
        }
      ],
      "stateMutability": "view",
      "type": "function"
    },
    {
      "inputs": [
        {
          "internalType": "address",
          "name": "_owner",
          "type": "address"
        }
      ],
      "name": "tokensOfOwner",
      "outputs": [
        {
          "internalType": "uint256[]",
          "name": "",
          "type": "uint256[]"
        }
      ],
      "stateMutability": "view",
      "type": "function"
    },
    {
      "inputs": [],
      "name": "totalSupply",
      "outputs": [
        {
          "internalType": "uint256",
          "name": "",
          "type": "uint256"
        }
      ],
      "stateMutability": "view",
      "type": "function"
    },
    {
      "inputs": [
        {
          "internalType": "address",
          "name": "from",
          "type": "address"
        },
        {
          "internalType": "address",
          "name": "to",
          "type": "address"
        },
        {
          "internalType": "uint256",
          "name": "tokenId",
          "type": "uint256"
        }
      ],
      "name": "transferFrom",
      "outputs": [],
      "stateMutability": "nonpayable",
      "type": "function"
    },
    {
      "inputs": [
        {
          "internalType": "address",
          "name": "newOwner",
          "type": "address"
        }
      ],
      "name": "transferOwnership",
      "outputs": [],
      "stateMutability": "nonpayable",
      "type": "function"
    },
    {
      "inputs": [],
      "name": "unpause",
      "outputs": [],
      "stateMutability": "nonpayable",
      "type": "function"
    },
    {
      "inputs": [],
      "name": "withdraw",
      "outputs": [],
      "stateMutability": "nonpayable",
      "type": "function"
    },
    {
      "inputs": [],
      "name": "withdrawWallet",
      "outputs": [
        {
          "internalType": "address payable",
          "name": "",
          "type": "address"
        }
      ],
      "stateMutability": "view",
      "type": "function"
    }
  ],
  "bytecode": "0x6080604052604051806060016040528060368152602001620044a560369139600c9080519060200190620000359291906200029a565b503480156200004357600080fd5b506040518060400160405280600c81526020017f506174696b6120426561727300000000000000000000000000000000000000008152506040518060400160405280600581526020017f50424541520000000000000000000000000000000000000000000000000000008152508160009080519060200190620000c89291906200029a565b508060019080519060200190620000e19291906200029a565b5050506000600a60006101000a81548160ff0219169083151502179055506200011f62000113620001b660201b60201c565b620001be60201b60201c565b66470de4df820000600d819055506014600e819055506005600f819055506000601060006101000a81548160ff02191690831515021790555033601060016101000a81548173ffffffffffffffffffffffffffffffffffffffff021916908373ffffffffffffffffffffffffffffffffffffffff160217905550620001b0600b6200028460201b620013e21760201c565b620003af565b600033905090565b6000600a60019054906101000a900473ffffffffffffffffffffffffffffffffffffffff16905081600a60016101000a81548173ffffffffffffffffffffffffffffffffffffffff021916908373ffffffffffffffffffffffffffffffffffffffff1602179055508173ffffffffffffffffffffffffffffffffffffffff168173ffffffffffffffffffffffffffffffffffffffff167f8be0079c531659141344cd1fd0a4f28419497f9722a3daafe3b4186f6b6457e060405160405180910390a35050565b6001816000016000828254019250508190555050565b828054620002a8906200034a565b90600052602060002090601f016020900481019282620002cc576000855562000318565b82601f10620002e757805160ff191683800117855562000318565b8280016001018555821562000318579182015b8281111562000317578251825591602001919060010190620002fa565b5b5090506200032791906200032b565b5090565b5b80821115620003465760008160009055506001016200032c565b5090565b600060028204905060018216806200036357607f821691505b602082108114156200037a576200037962000380565b5b50919050565b7f4e487b7100000000000000000000000000000000000000000000000000000000600052602260045260246000fd5b6140e680620003bf6000396000f3fe6080604052600436106101e35760003560e01c80636817c76c1161010257806395d89b4111610095578063d5abeb0111610064578063d5abeb011461069b578063e985e9c5146106c6578063eb8d244414610703578063f2fde38b1461072e576101e3565b806395d89b41146105e1578063a22cb4651461060c578063b88d4fde14610635578063c87b56dd1461065e576101e3565b80638456cb59116100d15780638456cb59146105375780638462151c1461054e57806385d178f41461058b5780638da5cb5b146105b6576101e3565b80636817c76c146104ae5780636902b22a146104d957806370a08231146104e3578063715018a614610520576101e3565b80633ccfd60b1161017a5780634f6ccce7116101495780634f6ccce7146103e057806355f804b31461041d5780635c975abb146104465780636352211e14610471576101e3565b80633ccfd60b1461035e5780633f4ba83a1461037557806342842e0e1461038c578063453c2310146103b5576101e3565b806318160ddd116101b657806318160ddd146102b657806323b872dd146102e15780632f745c591461030a5780633423cec214610347576101e3565b806301ffc9a7146101e857806306fdde0314610225578063081812fc14610250578063095ea7b31461028d575b600080fd5b3480156101f457600080fd5b5061020f600480360381019061020a9190612c91565b610757565b60405161021c9190613318565b60405180910390f35b34801561023157600080fd5b5061023a610769565b6040516102479190613333565b60405180910390f35b34801561025c57600080fd5b5061027760048036038101906102729190612d34565b6107fb565b6040516102849190613274565b60405180910390f35b34801561029957600080fd5b506102b460048036038101906102af9190612c51565b610841565b005b3480156102c257600080fd5b506102cb610959565b6040516102d89190613635565b60405180910390f35b3480156102ed57600080fd5b5061030860048036038101906103039190612b3b565b610966565b005b34801561031657600080fd5b50610331600480360381019061032c9190612c51565b6109c6565b60405161033e9190613635565b60405180910390f35b34801561035357600080fd5b5061035c610a6b565b005b34801561036a57600080fd5b50610373610a9f565b005b34801561038157600080fd5b5061038a610b7e565b005b34801561039857600080fd5b506103b360048036038101906103ae9190612b3b565b610b90565b005b3480156103c157600080fd5b506103ca610bb0565b6040516103d79190613635565b60405180910390f35b3480156103ec57600080fd5b5061040760048036038101906104029190612d34565b610bb6565b6040516104149190613635565b60405180910390f35b34801561042957600080fd5b50610444600480360381019061043f9190612ceb565b610c27565b005b34801561045257600080fd5b5061045b610c49565b6040516104689190613318565b60405180910390f35b34801561047d57600080fd5b5061049860048036038101906104939190612d34565b610c60565b6040516104a59190613274565b60405180910390f35b3480156104ba57600080fd5b506104c3610d12565b6040516104d09190613635565b60405180910390f35b6104e1610d18565b005b3480156104ef57600080fd5b5061050a60048036038101906105059190612ace565b610e74565b6040516105179190613635565b60405180910390f35b34801561052c57600080fd5b50610535610f2c565b005b34801561054357600080fd5b5061054c610f40565b005b34801561055a57600080fd5b5061057560048036038101906105709190612ace565b610f52565b60405161058291906132f6565b60405180910390f35b34801561059757600080fd5b506105a06110b0565b6040516105ad919061328f565b60405180910390f35b3480156105c257600080fd5b506105cb6110d6565b6040516105d89190613274565b60405180910390f35b3480156105ed57600080fd5b506105f6611100565b6040516106039190613333565b60405180910390f35b34801561061857600080fd5b50610633600480360381019061062e9190612c11565b611192565b005b34801561064157600080fd5b5061065c60048036038101906106579190612b8e565b6111a8565b005b34801561066a57600080fd5b5061068560048036038101906106809190612d34565b61120a565b6040516106929190613333565b60405180910390f35b3480156106a757600080fd5b506106b06112b1565b6040516106bd9190613635565b60405180910390f35b3480156106d257600080fd5b506106ed60048036038101906106e89190612afb565b6112b7565b6040516106fa9190613318565b60405180910390f35b34801561070f57600080fd5b5061071861134b565b6040516107259190613318565b60405180910390f35b34801561073a57600080fd5b5061075560048036038101906107509190612ace565b61135e565b005b6000610762826113f8565b9050919050565b606060008054610778906138e1565b80601f01602080910402602001604051908101604052809291908181526020018280546107a4906138e1565b80156107f15780601f106107c6576101008083540402835291602001916107f1565b820191906000526020600020905b8154815290600101906020018083116107d457829003601f168201915b5050505050905090565b600061080682611472565b6004600083815260200190815260200160002060009054906101000a900473ffffffffffffffffffffffffffffffffffffffff169050919050565b600061084c82610c60565b90508073ffffffffffffffffffffffffffffffffffffffff168373ffffffffffffffffffffffffffffffffffffffff1614156108bd576040517f08c379a00000000000000000000000000000000000000000000000000000000081526004016108b490613575565b60405180910390fd5b8073ffffffffffffffffffffffffffffffffffffffff166108dc6114bd565b73ffffffffffffffffffffffffffffffffffffffff16148061090b575061090a816109056114bd565b6112b7565b5b61094a576040517f08c379a0000000000000000000000000000000000000000000000000000000008152600401610941906134d5565b60405180910390fd5b61095483836114c5565b505050565b6000600880549050905090565b6109776109716114bd565b8261157e565b6109b6576040517f08c379a00000000000000000000000000000000000000000000000000000000081526004016109ad906135f5565b60405180910390fd5b6109c1838383611613565b505050565b60006109d183610e74565b8210610a12576040517f08c379a0000000000000000000000000000000000000000000000000000000008152600401610a0990613375565b60405180910390fd5b600660008473ffffffffffffffffffffffffffffffffffffffff1673ffffffffffffffffffffffffffffffffffffffff168152602001908152602001600020600083815260200190815260200160002054905092915050565b610a7361187a565b601060009054906101000a900460ff1615601060006101000a81548160ff021916908315150217905550565b610aa761187a565b60004790506000601060019054906101000a900473ffffffffffffffffffffffffffffffffffffffff1673ffffffffffffffffffffffffffffffffffffffff1682604051610af49061325f565b60006040518083038185875af1925050503d8060008114610b31576040519150601f19603f3d011682016040523d82523d6000602084013e610b36565b606091505b5050905080610b7a576040517f08c379a0000000000000000000000000000000000000000000000000000000008152600401610b7190613595565b60405180910390fd5b5050565b610b8661187a565b610b8e6118f8565b565b610bab838383604051806020016040528060008152506111a8565b505050565b600f5481565b6000610bc0610959565b8210610c01576040517f08c379a0000000000000000000000000000000000000000000000000000000008152600401610bf8906135d5565b60405180910390fd5b60088281548110610c1557610c14613a7a565b5b90600052602060002001549050919050565b610c2f61187a565b80600c9080519060200190610c459291906128e2565b5050565b6000600a60009054906101000a900460ff16905090565b6000806002600084815260200190815260200160002060009054906101000a900473ffffffffffffffffffffffffffffffffffffffff169050600073ffffffffffffffffffffffffffffffffffffffff168173ffffffffffffffffffffffffffffffffffffffff161415610d09576040517f08c379a0000000000000000000000000000000000000000000000000000000008152600401610d0090613555565b60405180910390fd5b80915050919050565b600d5481565b601060009054906101000a900460ff16610d67576040517f08c379a0000000000000000000000000000000000000000000000000000000008152600401610d5e90613455565b60405180910390fd5b600e546001610d74610959565b610d7e919061375e565b1115610dbf576040517f08c379a0000000000000000000000000000000000000000000000000000000008152600401610db6906135b5565b60405180910390fd5b600d543414610e03576040517f08c379a0000000000000000000000000000000000000000000000000000000008152600401610dfa90613515565b60405180910390fd5b600f54610e0f33610e74565b10610e4f576040517f08c379a0000000000000000000000000000000000000000000000000000000008152600401610e46906134b5565b60405180910390fd5b6000610e5b600b61195b565b9050610e67600b6113e2565b610e713382611969565b50565b60008073ffffffffffffffffffffffffffffffffffffffff168273ffffffffffffffffffffffffffffffffffffffff161415610ee5576040517f08c379a0000000000000000000000000000000000000000000000000000000008152600401610edc90613495565b60405180910390fd5b600360008373ffffffffffffffffffffffffffffffffffffffff1673ffffffffffffffffffffffffffffffffffffffff168152602001908152602001600020549050919050565b610f3461187a565b610f3e6000611987565b565b610f4861187a565b610f50611a4d565b565b60606000610f5f83610e74565b90506000811415610fbc57600067ffffffffffffffff811115610f8557610f84613aa9565b5b604051908082528060200260200182016040528015610fb35781602001602082028036833780820191505090505b509150506110ab565b60008167ffffffffffffffff811115610fd857610fd7613aa9565b5b6040519080825280602002602001820160405280156110065781602001602082028036833780820191505090505b5090506000611013610959565b9050600080600190505b8281116110a2578673ffffffffffffffffffffffffffffffffffffffff1661104482610c60565b73ffffffffffffffffffffffffffffffffffffffff16141561108f578084838151811061107457611073613a7a565b5b602002602001018181525050818061108b90613944565b9250505b808061109a90613944565b91505061101d565b83955050505050505b919050565b601060019054906101000a900473ffffffffffffffffffffffffffffffffffffffff1681565b6000600a60019054906101000a900473ffffffffffffffffffffffffffffffffffffffff16905090565b60606001805461110f906138e1565b80601f016020809104026020016040519081016040528092919081815260200182805461113b906138e1565b80156111885780601f1061115d57610100808354040283529160200191611188565b820191906000526020600020905b81548152906001019060200180831161116b57829003601f168201915b5050505050905090565b6111a461119d6114bd565b8383611ab0565b5050565b6111b96111b36114bd565b8361157e565b6111f8576040517f08c379a00000000000000000000000000000000000000000000000000000000081526004016111ef906135f5565b60405180910390fd5b61120484848484611c1d565b50505050565b606061121582611c79565b611254576040517f08c379a000000000000000000000000000000000000000000000000000000000815260040161124b90613615565b60405180910390fd5b600061125e611ce5565b9050600081511161127e57604051806020016040528060008152506112a9565b8061128884611d77565b604051602001611299929190613230565b6040516020818303038152906040525b915050919050565b600e5481565b6000600560008473ffffffffffffffffffffffffffffffffffffffff1673ffffffffffffffffffffffffffffffffffffffff16815260200190815260200160002060008373ffffffffffffffffffffffffffffffffffffffff1673ffffffffffffffffffffffffffffffffffffffff16815260200190815260200160002060009054906101000a900460ff16905092915050565b601060009054906101000a900460ff1681565b61136661187a565b600073ffffffffffffffffffffffffffffffffffffffff168173ffffffffffffffffffffffffffffffffffffffff1614156113d6576040517f08c379a00000000000000000000000000000000000000000000000000000000081526004016113cd906133b5565b60405180910390fd5b6113df81611987565b50565b6001816000016000828254019250508190555050565b60007f780e9d63000000000000000000000000000000000000000000000000000000007bffffffffffffffffffffffffffffffffffffffffffffffffffffffff1916827bffffffffffffffffffffffffffffffffffffffffffffffffffffffff1916148061146b575061146a82611ed8565b5b9050919050565b61147b81611c79565b6114ba576040517f08c379a00000000000000000000000000000000000000000000000000000000081526004016114b190613555565b60405180910390fd5b50565b600033905090565b816004600083815260200190815260200160002060006101000a81548173ffffffffffffffffffffffffffffffffffffffff021916908373ffffffffffffffffffffffffffffffffffffffff160217905550808273ffffffffffffffffffffffffffffffffffffffff1661153883610c60565b73ffffffffffffffffffffffffffffffffffffffff167f8c5be1e5ebec7d5bd14f71427d1e84f3dd0314c0f7b2291e5b200ac8c7c3b92560405160405180910390a45050565b60008061158a83610c60565b90508073ffffffffffffffffffffffffffffffffffffffff168473ffffffffffffffffffffffffffffffffffffffff1614806115cc57506115cb81856112b7565b5b8061160a57508373ffffffffffffffffffffffffffffffffffffffff166115f2846107fb565b73ffffffffffffffffffffffffffffffffffffffff16145b91505092915050565b8273ffffffffffffffffffffffffffffffffffffffff1661163382610c60565b73ffffffffffffffffffffffffffffffffffffffff1614611689576040517f08c379a0000000000000000000000000000000000000000000000000000000008152600401611680906133d5565b60405180910390fd5b600073ffffffffffffffffffffffffffffffffffffffff168273ffffffffffffffffffffffffffffffffffffffff1614156116f9576040517f08c379a00000000000000000000000000000000000000000000000000000000081526004016116f090613415565b60405180910390fd5b611704838383611fba565b61170f6000826114c5565b6001600360008573ffffffffffffffffffffffffffffffffffffffff1673ffffffffffffffffffffffffffffffffffffffff168152602001908152602001600020600082825461175f91906137e5565b925050819055506001600360008473ffffffffffffffffffffffffffffffffffffffff1673ffffffffffffffffffffffffffffffffffffffff16815260200190815260200160002060008282546117b6919061375e565b92505081905550816002600083815260200190815260200160002060006101000a81548173ffffffffffffffffffffffffffffffffffffffff021916908373ffffffffffffffffffffffffffffffffffffffff160217905550808273ffffffffffffffffffffffffffffffffffffffff168473ffffffffffffffffffffffffffffffffffffffff167fddf252ad1be2c89b69c2b068fc378daa952ba7f163c4a11628f55a4df523b3ef60405160405180910390a4611875838383611fd2565b505050565b6118826114bd565b73ffffffffffffffffffffffffffffffffffffffff166118a06110d6565b73ffffffffffffffffffffffffffffffffffffffff16146118f6576040517f08c379a00000000000000000000000000000000000000000000000000000000081526004016118ed90613535565b60405180910390fd5b565b611900611fd7565b6000600a60006101000a81548160ff0219169083151502179055507f5db9ee0a495bf2e6ff9c91a7834c1ba4fdd244a5e8aa4e537bd38aeae4b073aa6119446114bd565b6040516119519190613274565b60405180910390a1565b600081600001549050919050565b611983828260405180602001604052806000815250612020565b5050565b6000600a60019054906101000a900473ffffffffffffffffffffffffffffffffffffffff16905081600a60016101000a81548173ffffffffffffffffffffffffffffffffffffffff021916908373ffffffffffffffffffffffffffffffffffffffff1602179055508173ffffffffffffffffffffffffffffffffffffffff168173ffffffffffffffffffffffffffffffffffffffff167f8be0079c531659141344cd1fd0a4f28419497f9722a3daafe3b4186f6b6457e060405160405180910390a35050565b611a5561207b565b6001600a60006101000a81548160ff0219169083151502179055507f62e78cea01bee320cd4e420270b5ea74000d11b0c9f74754ebdbfc544b05a258611a996114bd565b604051611aa69190613274565b60405180910390a1565b8173ffffffffffffffffffffffffffffffffffffffff168373ffffffffffffffffffffffffffffffffffffffff161415611b1f576040517f08c379a0000000000000000000000000000000000000000000000000000000008152600401611b1690613435565b60405180910390fd5b80600560008573ffffffffffffffffffffffffffffffffffffffff1673ffffffffffffffffffffffffffffffffffffffff16815260200190815260200160002060008473ffffffffffffffffffffffffffffffffffffffff1673ffffffffffffffffffffffffffffffffffffffff16815260200190815260200160002060006101000a81548160ff0219169083151502179055508173ffffffffffffffffffffffffffffffffffffffff168373ffffffffffffffffffffffffffffffffffffffff167f17307eab39ab6107e8899845ad3d59bd9653f200f220920489ca2b5937696c3183604051611c109190613318565b60405180910390a3505050565b611c28848484611613565b611c34848484846120c5565b611c73576040517f08c379a0000000000000000000000000000000000000000000000000000000008152600401611c6a90613395565b60405180910390fd5b50505050565b60008073ffffffffffffffffffffffffffffffffffffffff166002600084815260200190815260200160002060009054906101000a900473ffffffffffffffffffffffffffffffffffffffff1673ffffffffffffffffffffffffffffffffffffffff1614159050919050565b6060600c8054611cf4906138e1565b80601f0160208091040260200160405190810160405280929190818152602001828054611d20906138e1565b8015611d6d5780601f10611d4257610100808354040283529160200191611d6d565b820191906000526020600020905b815481529060010190602001808311611d5057829003601f168201915b5050505050905090565b60606000821415611dbf576040518060400160405280600181526020017f30000000000000000000000000000000000000000000000000000000000000008152509050611ed3565b600082905060005b60008214611df1578080611dda90613944565b915050600a82611dea91906137b4565b9150611dc7565b60008167ffffffffffffffff811115611e0d57611e0c613aa9565b5b6040519080825280601f01601f191660200182016040528015611e3f5781602001600182028036833780820191505090505b5090505b60008514611ecc57600182611e5891906137e5565b9150600a85611e67919061398d565b6030611e73919061375e565b60f81b818381518110611e8957611e88613a7a565b5b60200101907effffffffffffffffffffffffffffffffffffffffffffffffffffffffffffff1916908160001a905350600a85611ec591906137b4565b9450611e43565b8093505050505b919050565b60007f80ac58cd000000000000000000000000000000000000000000000000000000007bffffffffffffffffffffffffffffffffffffffffffffffffffffffff1916827bffffffffffffffffffffffffffffffffffffffffffffffffffffffff19161480611fa357507f5b5e139f000000000000000000000000000000000000000000000000000000007bffffffffffffffffffffffffffffffffffffffffffffffffffffffff1916827bffffffffffffffffffffffffffffffffffffffffffffffffffffffff1916145b80611fb35750611fb28261225c565b5b9050919050565b611fc261207b565b611fcd8383836122c6565b505050565b505050565b611fdf610c49565b61201e576040517f08c379a000000000000000000000000000000000000000000000000000000000815260040161201590613355565b60405180910390fd5b565b61202a83836123da565b61203760008484846120c5565b612076576040517f08c379a000000000000000000000000000000000000000000000000000000000815260040161206d90613395565b60405180910390fd5b505050565b612083610c49565b156120c3576040517f08c379a00000000000000000000000000000000000000000000000000000000081526004016120ba90613475565b60405180910390fd5b565b60006120e68473ffffffffffffffffffffffffffffffffffffffff166125b4565b1561224f578373ffffffffffffffffffffffffffffffffffffffff1663150b7a0261210f6114bd565b8786866040518563ffffffff1660e01b815260040161213194939291906132aa565b602060405180830381600087803b15801561214b57600080fd5b505af192505050801561217c57506040513d601f19601f820116820180604052508101906121799190612cbe565b60015b6121ff573d80600081146121ac576040519150601f19603f3d011682016040523d82523d6000602084013e6121b1565b606091505b506000815114156121f7576040517f08c379a00000000000000000000000000000000000000000000000000000000081526004016121ee90613395565b60405180910390fd5b805181602001fd5b63150b7a0260e01b7bffffffffffffffffffffffffffffffffffffffffffffffffffffffff1916817bffffffffffffffffffffffffffffffffffffffffffffffffffffffff191614915050612254565b600190505b949350505050565b60007f01ffc9a7000000000000000000000000000000000000000000000000000000007bffffffffffffffffffffffffffffffffffffffffffffffffffffffff1916827bffffffffffffffffffffffffffffffffffffffffffffffffffffffff1916149050919050565b6122d18383836125d7565b600073ffffffffffffffffffffffffffffffffffffffff168373ffffffffffffffffffffffffffffffffffffffff1614156123145761230f816125dc565b612353565b8173ffffffffffffffffffffffffffffffffffffffff168373ffffffffffffffffffffffffffffffffffffffff1614612352576123518382612625565b5b5b600073ffffffffffffffffffffffffffffffffffffffff168273ffffffffffffffffffffffffffffffffffffffff1614156123965761239181612792565b6123d5565b8273ffffffffffffffffffffffffffffffffffffffff168273ffffffffffffffffffffffffffffffffffffffff16146123d4576123d38282612863565b5b5b505050565b600073ffffffffffffffffffffffffffffffffffffffff168273ffffffffffffffffffffffffffffffffffffffff16141561244a576040517f08c379a0000000000000000000000000000000000000000000000000000000008152600401612441906134f5565b60405180910390fd5b61245381611c79565b15612493576040517f08c379a000000000000000000000000000000000000000000000000000000000815260040161248a906133f5565b60405180910390fd5b61249f60008383611fba565b6001600360008473ffffffffffffffffffffffffffffffffffffffff1673ffffffffffffffffffffffffffffffffffffffff16815260200190815260200160002060008282546124ef919061375e565b92505081905550816002600083815260200190815260200160002060006101000a81548173ffffffffffffffffffffffffffffffffffffffff021916908373ffffffffffffffffffffffffffffffffffffffff160217905550808273ffffffffffffffffffffffffffffffffffffffff16600073ffffffffffffffffffffffffffffffffffffffff167fddf252ad1be2c89b69c2b068fc378daa952ba7f163c4a11628f55a4df523b3ef60405160405180910390a46125b060008383611fd2565b5050565b6000808273ffffffffffffffffffffffffffffffffffffffff163b119050919050565b505050565b6008805490506009600083815260200190815260200160002081905550600881908060018154018082558091505060019003906000526020600020016000909190919091505550565b6000600161263284610e74565b61263c91906137e5565b9050600060076000848152602001908152602001600020549050818114612721576000600660008673ffffffffffffffffffffffffffffffffffffffff1673ffffffffffffffffffffffffffffffffffffffff168152602001908152602001600020600084815260200190815260200160002054905080600660008773ffffffffffffffffffffffffffffffffffffffff1673ffffffffffffffffffffffffffffffffffffffff168152602001908152602001600020600084815260200190815260200160002081905550816007600083815260200190815260200160002081905550505b6007600084815260200190815260200160002060009055600660008573ffffffffffffffffffffffffffffffffffffffff1673ffffffffffffffffffffffffffffffffffffffff16815260200190815260200160002060008381526020019081526020016000206000905550505050565b600060016008805490506127a691906137e5565b90506000600960008481526020019081526020016000205490506000600883815481106127d6576127d5613a7a565b5b9060005260206000200154905080600883815481106127f8576127f7613a7a565b5b90600052602060002001819055508160096000838152602001908152602001600020819055506009600085815260200190815260200160002060009055600880548061284757612846613a4b565b5b6001900381819060005260206000200160009055905550505050565b600061286e83610e74565b905081600660008573ffffffffffffffffffffffffffffffffffffffff1673ffffffffffffffffffffffffffffffffffffffff168152602001908152602001600020600083815260200190815260200160002081905550806007600084815260200190815260200160002081905550505050565b8280546128ee906138e1565b90600052602060002090601f0160209004810192826129105760008555612957565b82601f1061292957805160ff1916838001178555612957565b82800160010185558215612957579182015b8281111561295657825182559160200191906001019061293b565b5b5090506129649190612968565b5090565b5b80821115612981576000816000905550600101612969565b5090565b600061299861299384613675565b613650565b9050828152602081018484840111156129b4576129b3613add565b5b6129bf84828561389f565b509392505050565b60006129da6129d5846136a6565b613650565b9050828152602081018484840111156129f6576129f5613add565b5b612a0184828561389f565b509392505050565b600081359050612a1881614054565b92915050565b600081359050612a2d8161406b565b92915050565b600081359050612a4281614082565b92915050565b600081519050612a5781614082565b92915050565b600082601f830112612a7257612a71613ad8565b5b8135612a82848260208601612985565b91505092915050565b600082601f830112612aa057612a9f613ad8565b5b8135612ab08482602086016129c7565b91505092915050565b600081359050612ac881614099565b92915050565b600060208284031215612ae457612ae3613ae7565b5b6000612af284828501612a09565b91505092915050565b60008060408385031215612b1257612b11613ae7565b5b6000612b2085828601612a09565b9250506020612b3185828601612a09565b9150509250929050565b600080600060608486031215612b5457612b53613ae7565b5b6000612b6286828701612a09565b9350506020612b7386828701612a09565b9250506040612b8486828701612ab9565b9150509250925092565b60008060008060808587031215612ba857612ba7613ae7565b5b6000612bb687828801612a09565b9450506020612bc787828801612a09565b9350506040612bd887828801612ab9565b925050606085013567ffffffffffffffff811115612bf957612bf8613ae2565b5b612c0587828801612a5d565b91505092959194509250565b60008060408385031215612c2857612c27613ae7565b5b6000612c3685828601612a09565b9250506020612c4785828601612a1e565b9150509250929050565b60008060408385031215612c6857612c67613ae7565b5b6000612c7685828601612a09565b9250506020612c8785828601612ab9565b9150509250929050565b600060208284031215612ca757612ca6613ae7565b5b6000612cb584828501612a33565b91505092915050565b600060208284031215612cd457612cd3613ae7565b5b6000612ce284828501612a48565b91505092915050565b600060208284031215612d0157612d00613ae7565b5b600082013567ffffffffffffffff811115612d1f57612d1e613ae2565b5b612d2b84828501612a8b565b91505092915050565b600060208284031215612d4a57612d49613ae7565b5b6000612d5884828501612ab9565b91505092915050565b6000612d6d8383613212565b60208301905092915050565b612d828161382b565b82525050565b612d9181613819565b82525050565b6000612da2826136e7565b612dac8185613715565b9350612db7836136d7565b8060005b83811015612de8578151612dcf8882612d61565b9750612dda83613708565b925050600181019050612dbb565b5085935050505092915050565b612dfe8161383d565b82525050565b6000612e0f826136f2565b612e198185613726565b9350612e298185602086016138ae565b612e3281613aec565b840191505092915050565b6000612e48826136fd565b612e528185613742565b9350612e628185602086016138ae565b612e6b81613aec565b840191505092915050565b6000612e81826136fd565b612e8b8185613753565b9350612e9b8185602086016138ae565b80840191505092915050565b6000612eb4601483613742565b9150612ebf82613afd565b602082019050919050565b6000612ed7602b83613742565b9150612ee282613b26565b604082019050919050565b6000612efa603283613742565b9150612f0582613b75565b604082019050919050565b6000612f1d602683613742565b9150612f2882613bc4565b604082019050919050565b6000612f40602583613742565b9150612f4b82613c13565b604082019050919050565b6000612f63601c83613742565b9150612f6e82613c62565b602082019050919050565b6000612f86602483613742565b9150612f9182613c8b565b604082019050919050565b6000612fa9601983613742565b9150612fb482613cda565b602082019050919050565b6000612fcc601b83613742565b9150612fd782613d03565b602082019050919050565b6000612fef601083613742565b9150612ffa82613d2c565b602082019050919050565b6000613012602983613742565b915061301d82613d55565b604082019050919050565b6000613035601683613742565b915061304082613da4565b602082019050919050565b6000613058603e83613742565b915061306382613dcd565b604082019050919050565b600061307b602083613742565b915061308682613e1c565b602082019050919050565b600061309e600f83613742565b91506130a982613e45565b602082019050919050565b60006130c1600583613753565b91506130cc82613e6e565b600582019050919050565b60006130e4602083613742565b91506130ef82613e97565b602082019050919050565b6000613107601883613742565b915061311282613ec0565b602082019050919050565b600061312a602183613742565b915061313582613ee9565b604082019050919050565b600061314d600083613737565b915061315882613f38565b600082019050919050565b6000613170601083613742565b915061317b82613f3b565b602082019050919050565b6000613193600883613742565b915061319e82613f64565b602082019050919050565b60006131b6602c83613742565b91506131c182613f8d565b604082019050919050565b60006131d9602e83613742565b91506131e482613fdc565b604082019050919050565b60006131fc601583613742565b91506132078261402b565b602082019050919050565b61321b81613895565b82525050565b61322a81613895565b82525050565b600061323c8285612e76565b91506132488284612e76565b9150613253826130b4565b91508190509392505050565b600061326a82613140565b9150819050919050565b60006020820190506132896000830184612d88565b92915050565b60006020820190506132a46000830184612d79565b92915050565b60006080820190506132bf6000830187612d88565b6132cc6020830186612d88565b6132d96040830185613221565b81810360608301526132eb8184612e04565b905095945050505050565b600060208201905081810360008301526133108184612d97565b905092915050565b600060208201905061332d6000830184612df5565b92915050565b6000602082019050818103600083015261334d8184612e3d565b905092915050565b6000602082019050818103600083015261336e81612ea7565b9050919050565b6000602082019050818103600083015261338e81612eca565b9050919050565b600060208201905081810360008301526133ae81612eed565b9050919050565b600060208201905081810360008301526133ce81612f10565b9050919050565b600060208201905081810360008301526133ee81612f33565b9050919050565b6000602082019050818103600083015261340e81612f56565b9050919050565b6000602082019050818103600083015261342e81612f79565b9050919050565b6000602082019050818103600083015261344e81612f9c565b9050919050565b6000602082019050818103600083015261346e81612fbf565b9050919050565b6000602082019050818103600083015261348e81612fe2565b9050919050565b600060208201905081810360008301526134ae81613005565b9050919050565b600060208201905081810360008301526134ce81613028565b9050919050565b600060208201905081810360008301526134ee8161304b565b9050919050565b6000602082019050818103600083015261350e8161306e565b9050919050565b6000602082019050818103600083015261352e81613091565b9050919050565b6000602082019050818103600083015261354e816130d7565b9050919050565b6000602082019050818103600083015261356e816130fa565b9050919050565b6000602082019050818103600083015261358e8161311d565b9050919050565b600060208201905081810360008301526135ae81613163565b9050919050565b600060208201905081810360008301526135ce81613186565b9050919050565b600060208201905081810360008301526135ee816131a9565b9050919050565b6000602082019050818103600083015261360e816131cc565b9050919050565b6000602082019050818103600083015261362e816131ef565b9050919050565b600060208201905061364a6000830184613221565b92915050565b600061365a61366b565b90506136668282613913565b919050565b6000604051905090565b600067ffffffffffffffff8211156136905761368f613aa9565b5b61369982613aec565b9050602081019050919050565b600067ffffffffffffffff8211156136c1576136c0613aa9565b5b6136ca82613aec565b9050602081019050919050565b6000819050602082019050919050565b600081519050919050565b600081519050919050565b600081519050919050565b6000602082019050919050565b600082825260208201905092915050565b600082825260208201905092915050565b600081905092915050565b600082825260208201905092915050565b600081905092915050565b600061376982613895565b915061377483613895565b9250827fffffffffffffffffffffffffffffffffffffffffffffffffffffffffffffffff038211156137a9576137a86139be565b5b828201905092915050565b60006137bf82613895565b91506137ca83613895565b9250826137da576137d96139ed565b5b828204905092915050565b60006137f082613895565b91506137fb83613895565b92508282101561380e5761380d6139be565b5b828203905092915050565b600061382482613875565b9050919050565b600061383682613875565b9050919050565b60008115159050919050565b60007fffffffff0000000000000000000000000000000000000000000000000000000082169050919050565b600073ffffffffffffffffffffffffffffffffffffffff82169050919050565b6000819050919050565b82818337600083830152505050565b60005b838110156138cc5780820151818401526020810190506138b1565b838111156138db576000848401525b50505050565b600060028204905060018216806138f957607f821691505b6020821081141561390d5761390c613a1c565b5b50919050565b61391c82613aec565b810181811067ffffffffffffffff8211171561393b5761393a613aa9565b5b80604052505050565b600061394f82613895565b91507fffffffffffffffffffffffffffffffffffffffffffffffffffffffffffffffff821415613982576139816139be565b5b600182019050919050565b600061399882613895565b91506139a383613895565b9250826139b3576139b26139ed565b5b828206905092915050565b7f4e487b7100000000000000000000000000000000000000000000000000000000600052601160045260246000fd5b7f4e487b7100000000000000000000000000000000000000000000000000000000600052601260045260246000fd5b7f4e487b7100000000000000000000000000000000000000000000000000000000600052602260045260246000fd5b7f4e487b7100000000000000000000000000000000000000000000000000000000600052603160045260246000fd5b7f4e487b7100000000000000000000000000000000000000000000000000000000600052603260045260246000fd5b7f4e487b7100000000000000000000000000000000000000000000000000000000600052604160045260246000fd5b600080fd5b600080fd5b600080fd5b600080fd5b6000601f19601f8301169050919050565b7f5061757361626c653a206e6f7420706175736564000000000000000000000000600082015250565b7f455243373231456e756d657261626c653a206f776e657220696e646578206f7560008201527f74206f6620626f756e6473000000000000000000000000000000000000000000602082015250565b7f4552433732313a207472616e7366657220746f206e6f6e20455243373231526560008201527f63656976657220696d706c656d656e7465720000000000000000000000000000602082015250565b7f4f776e61626c653a206e6577206f776e657220697320746865207a65726f206160008201527f6464726573730000000000000000000000000000000000000000000000000000602082015250565b7f4552433732313a207472616e736665722066726f6d20696e636f72726563742060008201527f6f776e6572000000000000000000000000000000000000000000000000000000602082015250565b7f4552433732313a20746f6b656e20616c7265616479206d696e74656400000000600082015250565b7f4552433732313a207472616e7366657220746f20746865207a65726f2061646460008201527f7265737300000000000000000000000000000000000000000000000000000000602082015250565b7f4552433732313a20617070726f766520746f2063616c6c657200000000000000600082015250565b7f53616c65206d7573742062652061637469766520746f206d696e740000000000600082015250565b7f5061757361626c653a2070617573656400000000000000000000000000000000600082015250565b7f4552433732313a2061646472657373207a65726f206973206e6f74206120766160008201527f6c6964206f776e65720000000000000000000000000000000000000000000000602082015250565b7f45786565636564206d6178207065722077616c6c657400000000000000000000600082015250565b7f4552433732313a20617070726f76652063616c6c6572206973206e6f7420746f60008201527f6b656e206f776e6572206e6f7220617070726f76656420666f7220616c6c0000602082015250565b7f4552433732313a206d696e7420746f20746865207a65726f2061646472657373600082015250565b7f496e636f72726563742076616c75650000000000000000000000000000000000600082015250565b7f2e6a736f6e000000000000000000000000000000000000000000000000000000600082015250565b7f4f776e61626c653a2063616c6c6572206973206e6f7420746865206f776e6572600082015250565b7f4552433732313a20696e76616c696420746f6b656e2049440000000000000000600082015250565b7f4552433732313a20617070726f76616c20746f2063757272656e74206f776e6560008201527f7200000000000000000000000000000000000000000000000000000000000000602082015250565b50565b7f5472616e73666572206661696c65642e00000000000000000000000000000000600082015250565b7f536f6c64206f7574000000000000000000000000000000000000000000000000600082015250565b7f455243373231456e756d657261626c653a20676c6f62616c20696e646578206f60008201527f7574206f6620626f756e64730000000000000000000000000000000000000000602082015250565b7f4552433732313a2063616c6c6572206973206e6f7420746f6b656e206f776e6560008201527f72206e6f7220617070726f766564000000000000000000000000000000000000602082015250565b7f546f6b656e20646f6573206e6f74206578697374210000000000000000000000600082015250565b61405d81613819565b811461406857600080fd5b50565b6140748161383d565b811461407f57600080fd5b50565b61408b81613849565b811461409657600080fd5b50565b6140a281613895565b81146140ad57600080fd5b5056fea264697066735822122072cf603578f518a64b8f331244da2823aaf36ec92eece10cc82275e9f4277aeb64736f6c63430008070033697066733a2f2f516d6364506754696a714c5574746241515a7a7865347a74513973616f57437751357345627a70715447387346682f",
  "linkReferences": {},
  "deployedLinkReferences": {}
}