{
  "_format": "hh-sol-artifact-1",
  "contractName": "Auction",
  "sourceName": "contracts/Auction.sol",
  "abi": [
    {
      "inputs": [
        {
          "internalType": "address",
          "name": "_contractAddress",
          "type": "address"
        }
      ],
      "stateMutability": "nonpayable",
      "type": "constructor"
    },
    {
      "anonymous": false,
      "inputs": [
        {
          "indexed": true,
          "internalType": "uint256",
          "name": "auctionId",
          "type": "uint256"
        },
        {
          "indexed": false,
          "internalType": "address",
          "name": "bidder",
          "type": "address"
        },
        {
          "indexed": false,
          "internalType": "uint256",
          "name": "bid",
          "type": "uint256"
        }
      ],
      "name": "AuctionBid",
      "type": "event"
    },
    {
      "anonymous": false,
      "inputs": [
        {
          "indexed": true,
          "internalType": "uint256",
          "name": "auctionId",
          "type": "uint256"
        },
        {
          "indexed": false,
          "internalType": "address",
          "name": "buyer",
          "type": "address"
        },
        {
          "indexed": false,
          "internalType": "uint256",
          "name": "bid",
          "type": "uint256"
        }
      ],
      "name": "AuctionBuyNow",
      "type": "event"
    },
    {
      "anonymous": false,
      "inputs": [
        {
          "indexed": true,
          "internalType": "uint256",
          "name": "auctionId",
          "type": "uint256"
        },
        {
          "indexed": false,
          "internalType": "address",
          "name": "seller",
          "type": "address"
        },
        {
          "indexed": false,
          "internalType": "uint256",
          "name": "nftTokenId",
          "type": "uint256"
        }
      ],
      "name": "AuctionCanceled",
      "type": "event"
    },
    {
      "anonymous": false,
      "inputs": [
        {
          "indexed": true,
          "internalType": "uint256",
          "name": "auctionId",
          "type": "uint256"
        },
        {
          "indexed": false,
          "internalType": "address",
          "name": "seller",
          "type": "address"
        },
        {
          "indexed": false,
          "internalType": "uint256",
          "name": "nftTokenId",
          "type": "uint256"
        },
        {
          "indexed": false,
          "internalType": "uint256",
          "name": "startPrice",
          "type": "uint256"
        },
        {
          "indexed": false,
          "internalType": "uint256",
          "name": "buyNowPrice",
          "type": "uint256"
        },
        {
          "indexed": false,
          "internalType": "uint256",
          "name": "startedAt",
          "type": "uint256"
        },
        {
          "indexed": false,
          "internalType": "uint256",
          "name": "endAt",
          "type": "uint256"
        }
      ],
      "name": "AuctionCreated",
      "type": "event"
    },
    {
      "anonymous": false,
      "inputs": [
        {
          "indexed": true,
          "internalType": "uint256",
          "name": "auctionId",
          "type": "uint256"
        },
        {
          "indexed": false,
          "internalType": "address",
          "name": "winner",
          "type": "address"
        },
        {
          "indexed": false,
          "internalType": "uint256",
          "name": "amount",
          "type": "uint256"
        }
      ],
      "name": "AuctionEnded",
      "type": "event"
    },
    {
      "anonymous": false,
      "inputs": [
        {
          "indexed": true,
          "internalType": "uint256",
          "name": "auctionId",
          "type": "uint256"
        },
        {
          "indexed": false,
          "internalType": "address",
          "name": "bidder",
          "type": "address"
        },
        {
          "indexed": false,
          "internalType": "uint256",
          "name": "bid",
          "type": "uint256"
        }
      ],
      "name": "BidderWithdraw",
      "type": "event"
    },
    {
      "inputs": [
        {
          "internalType": "uint256",
          "name": "",
          "type": "uint256"
        }
      ],
      "name": "auctions",
      "outputs": [
        {
          "internalType": "address payable",
          "name": "seller",
          "type": "address"
        },
        {
          "internalType": "uint256",
          "name": "nftTokenId",
          "type": "uint256"
        },
        {
          "internalType": "address",
          "name": "highestBidder",
          "type": "address"
        },
        {
          "internalType": "uint256",
          "name": "highestBid",
          "type": "uint256"
        },
        {
          "internalType": "uint256",
          "name": "startPrice",
          "type": "uint256"
        },
        {
          "internalType": "uint256",
          "name": "buyNowPrice",
          "type": "uint256"
        },
        {
          "internalType": "uint256",
          "name": "startedAt",
          "type": "uint256"
        },
        {
          "internalType": "uint256",
          "name": "endAt",
          "type": "uint256"
        },
        {
          "internalType": "bool",
          "name": "canceled",
          "type": "bool"
        }
      ],
      "stateMutability": "view",
      "type": "function"
    },
    {
      "inputs": [
        {
          "internalType": "uint256",
          "name": "_auctionId",
          "type": "uint256"
        }
      ],
      "name": "bid",
      "outputs": [],
      "stateMutability": "payable",
      "type": "function"
    },
    {
      "inputs": [
        {
          "internalType": "uint256",
          "name": "",
          "type": "uint256"
        },
        {
          "internalType": "address",
          "name": "",
          "type": "address"
        }
      ],
      "name": "bidList",
      "outputs": [
        {
          "internalType": "uint256",
          "name": "",
          "type": "uint256"
        }
      ],
      "stateMutability": "view",
      "type": "function"
    },
    {
      "inputs": [
        {
          "internalType": "uint256",
          "name": "_auctionId",
          "type": "uint256"
        }
      ],
      "name": "buyNow",
      "outputs": [],
      "stateMutability": "payable",
      "type": "function"
    },
    {
      "inputs": [
        {
          "internalType": "uint256",
          "name": "_auctionId",
          "type": "uint256"
        }
      ],
      "name": "cancelAuction",
      "outputs": [],
      "stateMutability": "nonpayable",
      "type": "function"
    },
    {
      "inputs": [],
      "name": "contractAddress",
      "outputs": [
        {
          "internalType": "contract IERC721",
          "name": "",
          "type": "address"
        }
      ],
      "stateMutability": "view",
      "type": "function"
    },
    {
      "inputs": [
        {
          "internalType": "uint256",
          "name": "_nftTokenId",
          "type": "uint256"
        },
        {
          "internalType": "uint256",
          "name": "_startPrice",
          "type": "uint256"
        },
        {
          "internalType": "uint256",
          "name": "_buyNowPrice",
          "type": "uint256"
        }
      ],
      "name": "createAuction",
      "outputs": [],
      "stateMutability": "nonpayable",
      "type": "function"
    },
    {
      "inputs": [
        {
          "internalType": "uint256",
          "name": "_auctionId",
          "type": "uint256"
        }
      ],
      "name": "endAuction",
      "outputs": [],
      "stateMutability": "nonpayable",
      "type": "function"
    },
    {
      "inputs": [
        {
          "internalType": "uint256",
          "name": "_auctionId",
          "type": "uint256"
        }
      ],
      "name": "getAuction",
      "outputs": [
        {
          "components": [
            {
              "internalType": "address payable",
              "name": "seller",
              "type": "address"
            },
            {
              "internalType": "uint256",
              "name": "nftTokenId",
              "type": "uint256"
            },
            {
              "internalType": "address",
              "name": "highestBidder",
              "type": "address"
            },
            {
              "internalType": "uint256",
              "name": "highestBid",
              "type": "uint256"
            },
            {
              "internalType": "uint256",
              "name": "startPrice",
              "type": "uint256"
            },
            {
              "internalType": "uint256",
              "name": "buyNowPrice",
              "type": "uint256"
            },
            {
              "internalType": "uint256",
              "name": "startedAt",
              "type": "uint256"
            },
            {
              "internalType": "uint256",
              "name": "endAt",
              "type": "uint256"
            },
            {
              "internalType": "bool",
              "name": "canceled",
              "type": "bool"
            }
          ],
          "internalType": "struct Auction.AuctionItem",
          "name": "",
          "type": "tuple"
        }
      ],
      "stateMutability": "view",
      "type": "function"
    },
    {
      "inputs": [],
      "name": "getAuctionList",
      "outputs": [
        {
          "components": [
            {
              "internalType": "address payable",
              "name": "seller",
              "type": "address"
            },
            {
              "internalType": "uint256",
              "name": "nftTokenId",
              "type": "uint256"
            },
            {
              "internalType": "address",
              "name": "highestBidder",
              "type": "address"
            },
            {
              "internalType": "uint256",
              "name": "highestBid",
              "type": "uint256"
            },
            {
              "internalType": "uint256",
              "name": "startPrice",
              "type": "uint256"
            },
            {
              "internalType": "uint256",
              "name": "buyNowPrice",
              "type": "uint256"
            },
            {
              "internalType": "uint256",
              "name": "startedAt",
              "type": "uint256"
            },
            {
              "internalType": "uint256",
              "name": "endAt",
              "type": "uint256"
            },
            {
              "internalType": "bool",
              "name": "canceled",
              "type": "bool"
            }
          ],
          "internalType": "struct Auction.AuctionItem[]",
          "name": "",
          "type": "tuple[]"
        }
      ],
      "stateMutability": "view",
      "type": "function"
    },
    {
      "inputs": [],
      "name": "getCurrentAuctionId",
      "outputs": [
        {
          "internalType": "uint256",
          "name": "",
          "type": "uint256"
        }
      ],
      "stateMutability": "view",
      "type": "function"
    },
    {
      "inputs": [],
      "name": "owner",
      "outputs": [
        {
          "internalType": "address payable",
          "name": "",
          "type": "address"
        }
      ],
      "stateMutability": "view",
      "type": "function"
    },
    {
      "inputs": [],
      "name": "ownerCut",
      "outputs": [
        {
          "internalType": "uint256",
          "name": "",
          "type": "uint256"
        }
      ],
      "stateMutability": "view",
      "type": "function"
    },
    {
      "inputs": [
        {
          "internalType": "uint256",
          "name": "_auctionId",
          "type": "uint256"
        }
      ],
      "name": "refundBid",
      "outputs": [],
      "stateMutability": "nonpayable",
      "type": "function"
    }
  ],
  "bytecode": "0x60a06040523480156200001157600080fd5b5060405162003d9638038062003d968339818101604052810190620000379190620000ef565b33600060016101000a81548173ffffffffffffffffffffffffffffffffffffffff021916908373ffffffffffffffffffffffffffffffffffffffff160217905550600a6001819055508073ffffffffffffffffffffffffffffffffffffffff1660808173ffffffffffffffffffffffffffffffffffffffff1660601b8152505060008060006101000a81548160ff0219169083151502179055505062000174565b600081519050620000e9816200015a565b92915050565b60006020828403121562000108576200010762000155565b5b60006200011884828501620000d8565b91505092915050565b60006200012e8262000135565b9050919050565b600073ffffffffffffffffffffffffffffffffffffffff82169050919050565b600080fd5b620001658162000121565b81146200017157600080fd5b50565b60805160601c613be7620001af6000396000818161207b015281816124350152818161255c0152818161272f01526129940152613be76000f3fe6080604052600436106100dd5760003560e01c806378bd79351161007f57806396b5a7551161005957806396b5a755146102ae578063b9a2de3a146102d7578063cda4beef14610300578063f6b4dfb414610329576100dd565b806378bd79351461021b57806383b5ff8b146102585780638da5cb5b14610283576100dd565b806326d29ce0116100bb57806326d29ce01461016657806341a15f111461018f578063454a2ab3146101ba578063571a26a0146101d6576100dd565b8063024467ab146100e257806308a0f32f1461011f578063157db3161461013b575b600080fd5b3480156100ee57600080fd5b5061010960048036038101906101049190612aab565b610354565b604051610116919061344e565b60405180910390f35b61013960048036038101906101349190612a7e565b610379565b005b34801561014757600080fd5b50610150610952565b60405161015d919061344e565b60405180910390f35b34801561017257600080fd5b5061018d60048036038101906101889190612a7e565b610963565b005b34801561019b57600080fd5b506101a4610f04565b6040516101b191906131d5565b60405180910390f35b6101d460048036038101906101cf9190612a7e565b6110d6565b005b3480156101e257600080fd5b506101fd60048036038101906101f89190612a7e565b611733565b60405161021299989796959493929190613050565b60405180910390f35b34801561022757600080fd5b50610242600480360381019061023d9190612a7e565b6117ce565b60405161024f9190613432565b60405180910390f35b34801561026457600080fd5b5061026d611979565b60405161027a919061344e565b60405180910390f35b34801561028f57600080fd5b5061029861197f565b6040516102a5919061300c565b60405180910390f35b3480156102ba57600080fd5b506102d560048036038101906102d09190612a7e565b6119a5565b005b3480156102e357600080fd5b506102fe60048036038101906102f99190612a7e565b6121b6565b005b34801561030c57600080fd5b5061032760048036038101906103229190612aeb565b612690565b005b34801561033557600080fd5b5061033e612992565b60405161034b91906131f7565b60405180910390f35b6004602052816000526040600020602052806000526040600020600091509150505481565b80600060036000838152602001908152602001600020604051806101200160405290816000820160009054906101000a900473ffffffffffffffffffffffffffffffffffffffff1673ffffffffffffffffffffffffffffffffffffffff1673ffffffffffffffffffffffffffffffffffffffff168152602001600182015481526020016002820160009054906101000a900473ffffffffffffffffffffffffffffffffffffffff1673ffffffffffffffffffffffffffffffffffffffff1673ffffffffffffffffffffffffffffffffffffffff16815260200160038201548152602001600482015481526020016005820154815260200160068201548152602001600782015481526020016008820160009054906101000a900460ff16151515158152505090508060e001514210806104bb5750600015158161010001511515145b6104fa576040517f08c379a00000000000000000000000000000000000000000000000000000000081526004016104f190613372565b60405180910390fd5b82600060036000838152602001908152602001600020604051806101200160405290816000820160009054906101000a900473ffffffffffffffffffffffffffffffffffffffff1673ffffffffffffffffffffffffffffffffffffffff1673ffffffffffffffffffffffffffffffffffffffff168152602001600182015481526020016002820160009054906101000a900473ffffffffffffffffffffffffffffffffffffffff1673ffffffffffffffffffffffffffffffffffffffff1673ffffffffffffffffffffffffffffffffffffffff16815260200160038201548152602001600482015481526020016005820154815260200160068201548152602001600782015481526020016008820160009054906101000a900460ff16151515158152505090508060c001514211610667576040517f08c379a000000000000000000000000000000000000000000000000000000000815260040161065e906132d2565b60405180910390fd5b600073ffffffffffffffffffffffffffffffffffffffff16610688866117ce565b6000015173ffffffffffffffffffffffffffffffffffffffff1614156106e3576040517f08c379a00000000000000000000000000000000000000000000000000000000081526004016106da90613312565b60405180910390fd5b60006003600087815260200190815260200160002090508060000160009054906101000a900473ffffffffffffffffffffffffffffffffffffffff1673ffffffffffffffffffffffffffffffffffffffff163373ffffffffffffffffffffffffffffffffffffffff16141561078d576040517f08c379a0000000000000000000000000000000000000000000000000000000008152600401610784906132f2565b60405180910390fd5b806005015434146107d3576040517f08c379a00000000000000000000000000000000000000000000000000000000081526004016107ca90613412565b60405180910390fd5b600073ffffffffffffffffffffffffffffffffffffffff168160020160009054906101000a900473ffffffffffffffffffffffffffffffffffffffff1673ffffffffffffffffffffffffffffffffffffffff16146108bb5780600301546004600088815260200190815260200160002060008360020160009054906101000a900473ffffffffffffffffffffffffffffffffffffffff1673ffffffffffffffffffffffffffffffffffffffff1673ffffffffffffffffffffffffffffffffffffffff16815260200190815260200160002060008282546108b391906134b3565b925050819055505b338160020160006101000a81548173ffffffffffffffffffffffffffffffffffffffff021916908373ffffffffffffffffffffffffffffffffffffffff160217905550348160030181905550857fc6e7970c6cb7febd13366f7311d32d8bd060b24e4d5e083159ee42d8f3fdaa84333460405161093992919061314b565b60405180910390a261094a866121b6565b505050505050565b600061095e60026129b6565b905090565b60008054906101000a900460ff16156109b1576040517f08c379a00000000000000000000000000000000000000000000000000000000081526004016109a890613232565b60405180910390fd5b60016000806101000a81548160ff02191690831515021790555080600060036000838152602001908152602001600020604051806101200160405290816000820160009054906101000a900473ffffffffffffffffffffffffffffffffffffffff1673ffffffffffffffffffffffffffffffffffffffff1673ffffffffffffffffffffffffffffffffffffffff168152602001600182015481526020016002820160009054906101000a900473ffffffffffffffffffffffffffffffffffffffff1673ffffffffffffffffffffffffffffffffffffffff1673ffffffffffffffffffffffffffffffffffffffff16815260200160038201548152602001600482015481526020016005820154815260200160068201548152602001600782015481526020016008820160009054906101000a900460ff16151515158152505090508060e00151421180610b0d5750600115158161010001511515145b610b4c576040517f08c379a0000000000000000000000000000000000000000000000000000000008152600401610b43906133f2565b60405180910390fd5b600073ffffffffffffffffffffffffffffffffffffffff16610b6d846117ce565b6000015173ffffffffffffffffffffffffffffffffffffffff161415610bc8576040517f08c379a0000000000000000000000000000000000000000000000000000000008152600401610bbf90613312565b60405180910390fd5b600060036000858152602001908152602001600020604051806101200160405290816000820160009054906101000a900473ffffffffffffffffffffffffffffffffffffffff1673ffffffffffffffffffffffffffffffffffffffff1673ffffffffffffffffffffffffffffffffffffffff168152602001600182015481526020016002820160009054906101000a900473ffffffffffffffffffffffffffffffffffffffff1673ffffffffffffffffffffffffffffffffffffffff1673ffffffffffffffffffffffffffffffffffffffff16815260200160038201548152602001600482015481526020016005820154815260200160068201548152602001600782015481526020016008820160009054906101000a900460ff16151515158152505090506000151581610100015115151415610d7457806040015173ffffffffffffffffffffffffffffffffffffffff163373ffffffffffffffffffffffffffffffffffffffff161415610d73576040517f08c379a0000000000000000000000000000000000000000000000000000000008152600401610d6a906133d2565b60405180910390fd5b5b60006004600086815260200190815260200160002060003373ffffffffffffffffffffffffffffffffffffffff1673ffffffffffffffffffffffffffffffffffffffff16815260200190815260200160002054905060008111610e0c576040517f08c379a0000000000000000000000000000000000000000000000000000000008152600401610e0390613392565b60405180910390fd5b60006004600087815260200190815260200160002060003373ffffffffffffffffffffffffffffffffffffffff1673ffffffffffffffffffffffffffffffffffffffff168152602001908152602001600020819055503373ffffffffffffffffffffffffffffffffffffffff166108fc829081150290604051600060405180830381858888f19350505050158015610ea8573d6000803e3d6000fd5b50847fcdb0a10013829235eab1e9a08a4464b7e71ada685aaff2df9200efa9003333223383604051610edb92919061314b565b60405180910390a25050505060008060006101000a81548160ff02191690831515021790555050565b60606000610f1260026129b6565b67ffffffffffffffff811115610f2b57610f2a613740565b5b604051908082528060200260200182016040528015610f6457816020015b610f516129da565b815260200190600190039081610f495790505b50905060005b610f7460026129b6565b8110156110ce5760036000828152602001908152602001600020604051806101200160405290816000820160009054906101000a900473ffffffffffffffffffffffffffffffffffffffff1673ffffffffffffffffffffffffffffffffffffffff1673ffffffffffffffffffffffffffffffffffffffff168152602001600182015481526020016002820160009054906101000a900473ffffffffffffffffffffffffffffffffffffffff1673ffffffffffffffffffffffffffffffffffffffff1673ffffffffffffffffffffffffffffffffffffffff16815260200160038201548152602001600482015481526020016005820154815260200160068201548152602001600782015481526020016008820160009054906101000a900460ff1615151515815250508282815181106110b0576110af613711565b5b602002602001018190525080806110c69061366a565b915050610f6a565b508091505090565b80600060036000838152602001908152602001600020604051806101200160405290816000820160009054906101000a900473ffffffffffffffffffffffffffffffffffffffff1673ffffffffffffffffffffffffffffffffffffffff1673ffffffffffffffffffffffffffffffffffffffff168152602001600182015481526020016002820160009054906101000a900473ffffffffffffffffffffffffffffffffffffffff1673ffffffffffffffffffffffffffffffffffffffff1673ffffffffffffffffffffffffffffffffffffffff16815260200160038201548152602001600482015481526020016005820154815260200160068201548152602001600782015481526020016008820160009054906101000a900460ff16151515158152505090508060e001514210806112185750600015158161010001511515145b611257576040517f08c379a000000000000000000000000000000000000000000000000000000000815260040161124e90613372565b60405180910390fd5b82600060036000838152602001908152602001600020604051806101200160405290816000820160009054906101000a900473ffffffffffffffffffffffffffffffffffffffff1673ffffffffffffffffffffffffffffffffffffffff1673ffffffffffffffffffffffffffffffffffffffff168152602001600182015481526020016002820160009054906101000a900473ffffffffffffffffffffffffffffffffffffffff1673ffffffffffffffffffffffffffffffffffffffff1673ffffffffffffffffffffffffffffffffffffffff16815260200160038201548152602001600482015481526020016005820154815260200160068201548152602001600782015481526020016008820160009054906101000a900460ff16151515158152505090508060c0015142116113c4576040517f08c379a00000000000000000000000000000000000000000000000000000000081526004016113bb906132d2565b60405180910390fd5b600073ffffffffffffffffffffffffffffffffffffffff166113e5866117ce565b6000015173ffffffffffffffffffffffffffffffffffffffff161415611440576040517f08c379a000000000000000000000000000000000000000000000000000000000815260040161143790613312565b60405180910390fd5b60006003600087815260200190815260200160002090508060030154341161149d576040517f08c379a000000000000000000000000000000000000000000000000000000000815260040161149490613252565b60405180910390fd5b80600401543410156114e4576040517f08c379a00000000000000000000000000000000000000000000000000000000081526004016114db90613352565b60405180910390fd5b8060000160009054906101000a900473ffffffffffffffffffffffffffffffffffffffff1673ffffffffffffffffffffffffffffffffffffffff163373ffffffffffffffffffffffffffffffffffffffff161415611577576040517f08c379a000000000000000000000000000000000000000000000000000000000815260040161156e906132f2565b60405180910390fd5b806005015434106115bd576040517f08c379a00000000000000000000000000000000000000000000000000000000081526004016115b490613332565b60405180910390fd5b600073ffffffffffffffffffffffffffffffffffffffff168160020160009054906101000a900473ffffffffffffffffffffffffffffffffffffffff1673ffffffffffffffffffffffffffffffffffffffff16146116a55780600301546004600088815260200190815260200160002060008360020160009054906101000a900473ffffffffffffffffffffffffffffffffffffffff1673ffffffffffffffffffffffffffffffffffffffff1673ffffffffffffffffffffffffffffffffffffffff168152602001908152602001600020600082825461169d91906134b3565b925050819055505b338160020160006101000a81548173ffffffffffffffffffffffffffffffffffffffff021916908373ffffffffffffffffffffffffffffffffffffffff160217905550348160030181905550857fb8d756f2d1da4663767eb4d559780ace84f2f65a421a60ddcb47e8b2e5d2fd26333460405161172392919061314b565b60405180910390a2505050505050565b60036020528060005260406000206000915090508060000160009054906101000a900473ffffffffffffffffffffffffffffffffffffffff16908060010154908060020160009054906101000a900473ffffffffffffffffffffffffffffffffffffffff16908060030154908060040154908060050154908060060154908060070154908060080160009054906101000a900460ff16905089565b6117d66129da565b600060036000848152602001908152602001600020604051806101200160405290816000820160009054906101000a900473ffffffffffffffffffffffffffffffffffffffff1673ffffffffffffffffffffffffffffffffffffffff1673ffffffffffffffffffffffffffffffffffffffff168152602001600182015481526020016002820160009054906101000a900473ffffffffffffffffffffffffffffffffffffffff1673ffffffffffffffffffffffffffffffffffffffff1673ffffffffffffffffffffffffffffffffffffffff16815260200160038201548152602001600482015481526020016005820154815260200160068201548152602001600782015481526020016008820160009054906101000a900460ff1615151515815250509050600073ffffffffffffffffffffffffffffffffffffffff16816000015173ffffffffffffffffffffffffffffffffffffffff161415611970576040517f08c379a000000000000000000000000000000000000000000000000000000000815260040161196790613312565b60405180910390fd5b80915050919050565b60015481565b600060019054906101000a900473ffffffffffffffffffffffffffffffffffffffff1681565b60008054906101000a900460ff16156119f3576040517f08c379a00000000000000000000000000000000000000000000000000000000081526004016119ea90613232565b60405180910390fd5b60016000806101000a81548160ff02191690831515021790555080600060036000838152602001908152602001600020604051806101200160405290816000820160009054906101000a900473ffffffffffffffffffffffffffffffffffffffff1673ffffffffffffffffffffffffffffffffffffffff1673ffffffffffffffffffffffffffffffffffffffff168152602001600182015481526020016002820160009054906101000a900473ffffffffffffffffffffffffffffffffffffffff1673ffffffffffffffffffffffffffffffffffffffff1673ffffffffffffffffffffffffffffffffffffffff16815260200160038201548152602001600482015481526020016005820154815260200160068201548152602001600782015481526020016008820160009054906101000a900460ff1615151515815250509050806000015173ffffffffffffffffffffffffffffffffffffffff163373ffffffffffffffffffffffffffffffffffffffff1614611ba6576040517f08c379a0000000000000000000000000000000000000000000000000000000008152600401611b9d906133b2565b60405180910390fd5b82600060036000838152602001908152602001600020604051806101200160405290816000820160009054906101000a900473ffffffffffffffffffffffffffffffffffffffff1673ffffffffffffffffffffffffffffffffffffffff1673ffffffffffffffffffffffffffffffffffffffff168152602001600182015481526020016002820160009054906101000a900473ffffffffffffffffffffffffffffffffffffffff1673ffffffffffffffffffffffffffffffffffffffff1673ffffffffffffffffffffffffffffffffffffffff16815260200160038201548152602001600482015481526020016005820154815260200160068201548152602001600782015481526020016008820160009054906101000a900460ff16151515158152505090508060e00151421080611ce85750600015158161010001511515145b611d27576040517f08c379a0000000000000000000000000000000000000000000000000000000008152600401611d1e90613372565b60405180910390fd5b84600060036000838152602001908152602001600020604051806101200160405290816000820160009054906101000a900473ffffffffffffffffffffffffffffffffffffffff1673ffffffffffffffffffffffffffffffffffffffff1673ffffffffffffffffffffffffffffffffffffffff168152602001600182015481526020016002820160009054906101000a900473ffffffffffffffffffffffffffffffffffffffff1673ffffffffffffffffffffffffffffffffffffffff1673ffffffffffffffffffffffffffffffffffffffff16815260200160038201548152602001600482015481526020016005820154815260200160068201548152602001600782015481526020016008820160009054906101000a900460ff16151515158152505090508060c001514211611e94576040517f08c379a0000000000000000000000000000000000000000000000000000000008152600401611e8b906132d2565b60405180910390fd5b600073ffffffffffffffffffffffffffffffffffffffff16611eb5886117ce565b6000015173ffffffffffffffffffffffffffffffffffffffff161415611f10576040517f08c379a0000000000000000000000000000000000000000000000000000000008152600401611f0790613312565b60405180910390fd5b6000600360008981526020019081526020016000209050600015158160080160009054906101000a900460ff16151514611f7f576040517f08c379a0000000000000000000000000000000000000000000000000000000008152600401611f7690613292565b60405180910390fd5b60018160080160006101000a81548160ff0219169083151502179055508060030154600460008a815260200190815260200160002060008360020160009054906101000a900473ffffffffffffffffffffffffffffffffffffffff1673ffffffffffffffffffffffffffffffffffffffff1673ffffffffffffffffffffffffffffffffffffffff168152602001908152602001600020600082825461202491906134b3565b9250508190555060008160020160006101000a81548173ffffffffffffffffffffffffffffffffffffffff021916908373ffffffffffffffffffffffffffffffffffffffff160217905550600081600301819055507f000000000000000000000000000000000000000000000000000000000000000073ffffffffffffffffffffffffffffffffffffffff166342842e0e308360000160009054906101000a900473ffffffffffffffffffffffffffffffffffffffff1684600101546040518463ffffffff1660e01b81526004016120fe939291906130dd565b600060405180830381600087803b15801561211857600080fd5b505af115801561212c573d6000803e3d6000fd5b50505050877fc326dcfb5d4e924f5e3e717c0f667b0eecb5abb73fc0b33236b6107c1fd48a578260000160009054906101000a900473ffffffffffffffffffffffffffffffffffffffff16836001015460405161218a929190613027565b60405180910390a25050505050505060008060006101000a81548160ff02191690831515021790555050565b60008054906101000a900460ff1615612204576040517f08c379a00000000000000000000000000000000000000000000000000000000081526004016121fb90613232565b60405180910390fd5b60016000806101000a81548160ff021916908315150217905550600073ffffffffffffffffffffffffffffffffffffffff1661223f826117ce565b6000015173ffffffffffffffffffffffffffffffffffffffff16141561229a576040517f08c379a000000000000000000000000000000000000000000000000000000000815260040161229190613312565b60405180910390fd5b60006003600083815260200190815260200160002090508060050154816003015414156122cf574281600701819055506123a8565b8060000160009054906101000a900473ffffffffffffffffffffffffffffffffffffffff1673ffffffffffffffffffffffffffffffffffffffff163373ffffffffffffffffffffffffffffffffffffffff1614612361576040517f08c379a0000000000000000000000000000000000000000000000000000000008152600401612358906133b2565b60405180910390fd5b806007015442116123a7576040517f08c379a000000000000000000000000000000000000000000000000000000000815260040161239e90613272565b60405180910390fd5b5b6000816003015490506000606460015460646123c49190613594565b836123cf919061353a565b6123d99190613509565b9050600073ffffffffffffffffffffffffffffffffffffffff168360020160009054906101000a900473ffffffffffffffffffffffffffffffffffffffff1673ffffffffffffffffffffffffffffffffffffffff161461255a577f000000000000000000000000000000000000000000000000000000000000000073ffffffffffffffffffffffffffffffffffffffff166342842e0e308560020160009054906101000a900473ffffffffffffffffffffffffffffffffffffffff1686600101546040518463ffffffff1660e01b81526004016124b893929190613114565b600060405180830381600087803b1580156124d257600080fd5b505af11580156124e6573d6000803e3d6000fd5b505050508260000160009054906101000a900473ffffffffffffffffffffffffffffffffffffffff1673ffffffffffffffffffffffffffffffffffffffff166108fc829081150290604051600060405180830381858888f19350505050158015612554573d6000803e3d6000fd5b50612612565b7f000000000000000000000000000000000000000000000000000000000000000073ffffffffffffffffffffffffffffffffffffffff166342842e0e308560000160009054906101000a900473ffffffffffffffffffffffffffffffffffffffff1686600101546040518463ffffffff1660e01b81526004016125df939291906130dd565b600060405180830381600087803b1580156125f957600080fd5b505af115801561260d573d6000803e3d6000fd5b505050505b837fd2aa34a4fdbbc6dff6a3e56f46e0f3ae2a31d7785ff3487aa5c95c642acea5018460020160009054906101000a900473ffffffffffffffffffffffffffffffffffffffff168460405161266892919061314b565b60405180910390a250505060008060006101000a81548160ff02191690831515021790555050565b8082106126d2576040517f08c379a00000000000000000000000000000000000000000000000000000000081526004016126c9906132b2565b60405180910390fd5b60008211612715576040517f08c379a000000000000000000000000000000000000000000000000000000000815260040161270c90613212565b60405180910390fd5b600061272160026129b6565b905061272d60026129c4565b7f000000000000000000000000000000000000000000000000000000000000000073ffffffffffffffffffffffffffffffffffffffff166323b872dd3330876040518463ffffffff1660e01b815260040161278a93929190613114565b600060405180830381600087803b1580156127a457600080fd5b505af11580156127b8573d6000803e3d6000fd5b505050506040518061012001604052803373ffffffffffffffffffffffffffffffffffffffff168152602001858152602001600073ffffffffffffffffffffffffffffffffffffffff1681526020016000815260200184815260200183815260200142815260200162093a804261282f91906134b3565b8152602001600015158152506003600083815260200190815260200160002060008201518160000160006101000a81548173ffffffffffffffffffffffffffffffffffffffff021916908373ffffffffffffffffffffffffffffffffffffffff1602179055506020820151816001015560408201518160020160006101000a81548173ffffffffffffffffffffffffffffffffffffffff021916908373ffffffffffffffffffffffffffffffffffffffff160217905550606082015181600301556080820151816004015560a0820151816005015560c0820151816006015560e082015181600701556101008201518160080160006101000a81548160ff021916908315150217905550905050807f3605d71e596cf139c8a211e38143afc7034e2158d00d864d7df7e91882b5bcba338686864262093a804261297291906134b3565b60405161298496959493929190613174565b60405180910390a250505050565b7f000000000000000000000000000000000000000000000000000000000000000081565b600081600001549050919050565b6001816000016000828254019250508190555050565b604051806101200160405280600073ffffffffffffffffffffffffffffffffffffffff16815260200160008152602001600073ffffffffffffffffffffffffffffffffffffffff16815260200160008152602001600081526020016000815260200160008152602001600081526020016000151581525090565b600081359050612a6381613b83565b92915050565b600081359050612a7881613b9a565b92915050565b600060208284031215612a9457612a9361376f565b5b6000612aa284828501612a69565b91505092915050565b60008060408385031215612ac257612ac161376f565b5b6000612ad085828601612a69565b9250506020612ae185828601612a54565b9150509250929050565b600080600060608486031215612b0457612b0361376f565b5b6000612b1286828701612a69565b9350506020612b2386828701612a69565b9250506040612b3486828701612a69565b9150509250925092565b6000612b4a8383612e80565b6101208301905092915050565b612b6081613622565b82525050565b612b6f816135da565b82525050565b612b7e816135da565b82525050565b612b8d816135c8565b82525050565b612b9c816135c8565b82525050565b6000612bad82613479565b612bb78185613491565b9350612bc283613469565b8060005b83811015612bf3578151612bda8882612b3e565b9750612be583613484565b925050600181019050612bc6565b5085935050505092915050565b612c09816135ec565b82525050565b612c18816135ec565b82525050565b612c2781613634565b82525050565b6000612c3a6023836134a2565b9150612c4582613774565b604082019050919050565b6000612c5d6011836134a2565b9150612c68826137c3565b602082019050919050565b6000612c80601e836134a2565b9150612c8b826137ec565b602082019050919050565b6000612ca3604d836134a2565b9150612cae82613815565b606082019050919050565b6000612cc66022836134a2565b9150612cd18261388a565b604082019050919050565b6000612ce9602c836134a2565b9150612cf4826138d9565b604082019050919050565b6000612d0c601c836134a2565b9150612d1782613928565b602082019050919050565b6000612d2f6023836134a2565b9150612d3a82613951565b604082019050919050565b6000612d526016836134a2565b9150612d5d826139a0565b602082019050919050565b6000612d756016836134a2565b9150612d80826139c9565b602082019050919050565b6000612d98602c836134a2565b9150612da3826139f2565b604082019050919050565b6000612dbb601a836134a2565b9150612dc682613a41565b602082019050919050565b6000612dde601c836134a2565b9150612de982613a6a565b602082019050919050565b6000612e016027836134a2565b9150612e0c82613a93565b604082019050919050565b6000612e24601b836134a2565b9150612e2f82613ae2565b602082019050919050565b6000612e47601a836134a2565b9150612e5282613b0b565b602082019050919050565b6000612e6a6027836134a2565b9150612e7582613b34565b604082019050919050565b61012082016000820151612e976000850182612b66565b506020820151612eaa6020850182612fee565b506040820151612ebd6040850182612b84565b506060820151612ed06060850182612fee565b506080820151612ee36080850182612fee565b5060a0820151612ef660a0850182612fee565b5060c0820151612f0960c0850182612fee565b5060e0820151612f1c60e0850182612fee565b50610100820151612f31610100850182612c00565b50505050565b61012082016000820151612f4e6000850182612b66565b506020820151612f616020850182612fee565b506040820151612f746040850182612b84565b506060820151612f876060850182612fee565b506080820151612f9a6080850182612fee565b5060a0820151612fad60a0850182612fee565b5060c0820151612fc060c0850182612fee565b5060e0820151612fd360e0850182612fee565b50610100820151612fe8610100850182612c00565b50505050565b612ff781613618565b82525050565b61300681613618565b82525050565b60006020820190506130216000830184612b75565b92915050565b600060408201905061303c6000830185612b57565b6130496020830184612ffd565b9392505050565b600061012082019050613066600083018c612b75565b613073602083018b612ffd565b613080604083018a612b93565b61308d6060830189612ffd565b61309a6080830188612ffd565b6130a760a0830187612ffd565b6130b460c0830186612ffd565b6130c160e0830185612ffd565b6130cf610100830184612c0f565b9a9950505050505050505050565b60006060820190506130f26000830186612b93565b6130ff6020830185612b57565b61310c6040830184612ffd565b949350505050565b60006060820190506131296000830186612b93565b6131366020830185612b93565b6131436040830184612ffd565b949350505050565b60006040820190506131606000830185612b93565b61316d6020830184612ffd565b9392505050565b600060c0820190506131896000830189612b93565b6131966020830188612ffd565b6131a36040830187612ffd565b6131b06060830186612ffd565b6131bd6080830185612ffd565b6131ca60a0830184612ffd565b979650505050505050565b600060208201905081810360008301526131ef8184612ba2565b905092915050565b600060208201905061320c6000830184612c1e565b92915050565b6000602082019050818103600083015261322b81612c2d565b9050919050565b6000602082019050818103600083015261324b81612c50565b9050919050565b6000602082019050818103600083015261326b81612c73565b9050919050565b6000602082019050818103600083015261328b81612c96565b9050919050565b600060208201905081810360008301526132ab81612cb9565b9050919050565b600060208201905081810360008301526132cb81612cdc565b9050919050565b600060208201905081810360008301526132eb81612cff565b9050919050565b6000602082019050818103600083015261330b81612d22565b9050919050565b6000602082019050818103600083015261332b81612d45565b9050919050565b6000602082019050818103600083015261334b81612d68565b9050919050565b6000602082019050818103600083015261336b81612d8b565b9050919050565b6000602082019050818103600083015261338b81612dae565b9050919050565b600060208201905081810360008301526133ab81612dd1565b9050919050565b600060208201905081810360008301526133cb81612df4565b9050919050565b600060208201905081810360008301526133eb81612e17565b9050919050565b6000602082019050818103600083015261340b81612e3a565b9050919050565b6000602082019050818103600083015261342b81612e5d565b9050919050565b6000610120820190506134486000830184612f37565b92915050565b60006020820190506134636000830184612ffd565b92915050565b6000819050602082019050919050565b600081519050919050565b6000602082019050919050565b600082825260208201905092915050565b600082825260208201905092915050565b60006134be82613618565b91506134c983613618565b9250827fffffffffffffffffffffffffffffffffffffffffffffffffffffffffffffffff038211156134fe576134fd6136b3565b5b828201905092915050565b600061351482613618565b915061351f83613618565b92508261352f5761352e6136e2565b5b828204905092915050565b600061354582613618565b915061355083613618565b9250817fffffffffffffffffffffffffffffffffffffffffffffffffffffffffffffffff0483118215151615613589576135886136b3565b5b828202905092915050565b600061359f82613618565b91506135aa83613618565b9250828210156135bd576135bc6136b3565b5b828203905092915050565b60006135d3826135f8565b9050919050565b60006135e5826135f8565b9050919050565b60008115159050919050565b600073ffffffffffffffffffffffffffffffffffffffff82169050919050565b6000819050919050565b600061362d82613646565b9050919050565b600061363f82613646565b9050919050565b600061365182613658565b9050919050565b6000613663826135f8565b9050919050565b600061367582613618565b91507fffffffffffffffffffffffffffffffffffffffffffffffffffffffffffffffff8214156136a8576136a76136b3565b5b600182019050919050565b7f4e487b7100000000000000000000000000000000000000000000000000000000600052601160045260246000fd5b7f4e487b7100000000000000000000000000000000000000000000000000000000600052601260045260246000fd5b7f4e487b7100000000000000000000000000000000000000000000000000000000600052603260045260246000fd5b7f4e487b7100000000000000000000000000000000000000000000000000000000600052604160045260246000fd5b600080fd5b7f5374617274207072696365206d7573742062652067726561746572207468616e60008201527f20302e0000000000000000000000000000000000000000000000000000000000602082015250565b7f4e6f2072656e74727920616c6c6f776564000000000000000000000000000000600082015250565b7f546865726520697320616c7265616479206120686967686572206269642e0000600082015250565b7f41756374696f6e20686173206e6f7420656e646564207965742e20546f20636160008201527f6e63656c207468652061756374696f6e2c207573652063616e63656c4175637460208201527f696f6e2066756e6374696f6e2e00000000000000000000000000000000000000604082015250565b7f41756374696f6e2068617320616c7265616479206265656e2063616e63656c6560008201527f642e000000000000000000000000000000000000000000000000000000000000602082015250565b7f5374617274207072696365206d757374206265206c657373207468616e20627560008201527f79206e6f772070726963652e0000000000000000000000000000000000000000602082015250565b7f41756374696f6e20686173206e6f742073746172746564207965742e00000000600082015250565b7f596f752063616e6e6f7420626964206f6e20796f7572206f776e20617563746960008201527f6f6e2e0000000000000000000000000000000000000000000000000000000000602082015250565b7f41756374696f6e20646f6573206e6f7420657869737400000000000000000000600082015250565b7f427579206e6f7720707269636520726561636865642e00000000000000000000600082015250565b7f42696420616d6f756e74206d7573742062652067726561746572207468616e2060008201527f73746172742070726963652e0000000000000000000000000000000000000000602082015250565b7f41756374696f6e2068617320616c726561647920656e6465642e000000000000600082015250565b7f596f752068617665206e6f2062696420746f2077697468647261772e00000000600082015250565b7f596f7520617265206e6f74207468652073656c6c6572206f662074686973206160008201527f756374696f6e2e00000000000000000000000000000000000000000000000000602082015250565b7f596f7520617265207468652068696768657374206269646465722e0000000000600082015250565b7f41756374696f6e20686173206e6f7420656e646564207965742e000000000000600082015250565b7f42696420616d6f756e74206d75737420657175616c20746f20627579206e6f7760008201527f2070726963652e00000000000000000000000000000000000000000000000000602082015250565b613b8c816135c8565b8114613b9757600080fd5b50565b613ba381613618565b8114613bae57600080fd5b5056fea2646970667358221220dcba1fce3ab9d21f264d83c70beba95ad1f5edad20b285841b2a8f2e09ae40c964736f6c63430008070033",
  "linkReferences": {},
  "deployedLinkReferences": {}
}