{
  "_format": "hh-sol-artifact-1",
  "contractName": "Auction",
  "sourceName": "contracts/Auction.sol",
  "abi": [
    {
      "inputs": [
        {
          "internalType": "address",
          "name": "_contractAddress",
          "type": "address"
        }
      ],
      "stateMutability": "nonpayable",
      "type": "constructor"
    },
    {
      "anonymous": false,
      "inputs": [
        {
          "indexed": true,
          "internalType": "uint256",
          "name": "auctionId",
          "type": "uint256"
        },
        {
          "indexed": false,
          "internalType": "address",
          "name": "bidder",
          "type": "address"
        },
        {
          "indexed": false,
          "internalType": "uint256",
          "name": "bid",
          "type": "uint256"
        }
      ],
      "name": "AuctionBid",
      "type": "event"
    },
    {
      "anonymous": false,
      "inputs": [
        {
          "indexed": true,
          "internalType": "uint256",
          "name": "auctionId",
          "type": "uint256"
        },
        {
          "indexed": false,
          "internalType": "address",
          "name": "buyer",
          "type": "address"
        },
        {
          "indexed": false,
          "internalType": "uint256",
          "name": "bid",
          "type": "uint256"
        }
      ],
      "name": "AuctionBuyNow",
      "type": "event"
    },
    {
      "anonymous": false,
      "inputs": [
        {
          "indexed": true,
          "internalType": "uint256",
          "name": "auctionId",
          "type": "uint256"
        },
        {
          "indexed": false,
          "internalType": "address",
          "name": "seller",
          "type": "address"
        },
        {
          "indexed": false,
          "internalType": "uint256",
          "name": "nftTokenId",
          "type": "uint256"
        }
      ],
      "name": "AuctionCanceled",
      "type": "event"
    },
    {
      "anonymous": false,
      "inputs": [
        {
          "indexed": true,
          "internalType": "uint256",
          "name": "auctionId",
          "type": "uint256"
        },
        {
          "indexed": false,
          "internalType": "address",
          "name": "seller",
          "type": "address"
        },
        {
          "indexed": false,
          "internalType": "uint256",
          "name": "nftTokenId",
          "type": "uint256"
        },
        {
          "indexed": false,
          "internalType": "uint256",
          "name": "startPrice",
          "type": "uint256"
        },
        {
          "indexed": false,
          "internalType": "uint256",
          "name": "buyNowPrice",
          "type": "uint256"
        },
        {
          "indexed": false,
          "internalType": "uint256",
          "name": "startedAt",
          "type": "uint256"
        },
        {
          "indexed": false,
          "internalType": "uint256",
          "name": "endAt",
          "type": "uint256"
        }
      ],
      "name": "AuctionCreated",
      "type": "event"
    },
    {
      "anonymous": false,
      "inputs": [
        {
          "indexed": true,
          "internalType": "uint256",
          "name": "auctionId",
          "type": "uint256"
        },
        {
          "indexed": false,
          "internalType": "bool",
          "name": "isSold",
          "type": "bool"
        }
      ],
      "name": "AuctionEnded",
      "type": "event"
    },
    {
      "anonymous": false,
      "inputs": [
        {
          "indexed": true,
          "internalType": "uint256",
          "name": "auctionId",
          "type": "uint256"
        },
        {
          "indexed": false,
          "internalType": "bool",
          "name": "isSold",
          "type": "bool"
        },
        {
          "indexed": false,
          "internalType": "address",
          "name": "winner",
          "type": "address"
        },
        {
          "indexed": false,
          "internalType": "uint256",
          "name": "bid",
          "type": "uint256"
        }
      ],
      "name": "AuctionSold",
      "type": "event"
    },
    {
      "anonymous": false,
      "inputs": [
        {
          "indexed": true,
          "internalType": "uint256",
          "name": "auctionId",
          "type": "uint256"
        },
        {
          "indexed": false,
          "internalType": "address",
          "name": "bidder",
          "type": "address"
        },
        {
          "indexed": false,
          "internalType": "uint256",
          "name": "bid",
          "type": "uint256"
        }
      ],
      "name": "BidderWithdraw",
      "type": "event"
    },
    {
      "inputs": [
        {
          "internalType": "uint256",
          "name": "",
          "type": "uint256"
        }
      ],
      "name": "auctions",
      "outputs": [
        {
          "internalType": "address payable",
          "name": "seller",
          "type": "address"
        },
        {
          "internalType": "uint256",
          "name": "nftTokenId",
          "type": "uint256"
        },
        {
          "internalType": "address",
          "name": "highestBidder",
          "type": "address"
        },
        {
          "internalType": "uint256",
          "name": "highestBid",
          "type": "uint256"
        },
        {
          "internalType": "uint256",
          "name": "startPrice",
          "type": "uint256"
        },
        {
          "internalType": "uint256",
          "name": "buyNowPrice",
          "type": "uint256"
        },
        {
          "internalType": "uint256",
          "name": "startedAt",
          "type": "uint256"
        },
        {
          "internalType": "uint256",
          "name": "endAt",
          "type": "uint256"
        },
        {
          "internalType": "bool",
          "name": "isSold",
          "type": "bool"
        },
        {
          "internalType": "bool",
          "name": "isEnded",
          "type": "bool"
        },
        {
          "internalType": "bool",
          "name": "isCanceled",
          "type": "bool"
        }
      ],
      "stateMutability": "view",
      "type": "function"
    },
    {
      "inputs": [
        {
          "internalType": "uint256",
          "name": "_auctionId",
          "type": "uint256"
        }
      ],
      "name": "bid",
      "outputs": [],
      "stateMutability": "payable",
      "type": "function"
    },
    {
      "inputs": [
        {
          "internalType": "uint256",
          "name": "",
          "type": "uint256"
        },
        {
          "internalType": "address",
          "name": "",
          "type": "address"
        }
      ],
      "name": "bidList",
      "outputs": [
        {
          "internalType": "uint256",
          "name": "",
          "type": "uint256"
        }
      ],
      "stateMutability": "view",
      "type": "function"
    },
    {
      "inputs": [
        {
          "internalType": "uint256",
          "name": "_auctionId",
          "type": "uint256"
        }
      ],
      "name": "buyNow",
      "outputs": [],
      "stateMutability": "payable",
      "type": "function"
    },
    {
      "inputs": [
        {
          "internalType": "uint256",
          "name": "_auctionId",
          "type": "uint256"
        }
      ],
      "name": "cancelAuction",
      "outputs": [],
      "stateMutability": "nonpayable",
      "type": "function"
    },
    {
      "inputs": [],
      "name": "contractAddress",
      "outputs": [
        {
          "internalType": "contract IERC721",
          "name": "",
          "type": "address"
        }
      ],
      "stateMutability": "view",
      "type": "function"
    },
    {
      "inputs": [
        {
          "internalType": "uint256",
          "name": "_nftTokenId",
          "type": "uint256"
        },
        {
          "internalType": "uint256",
          "name": "_startPrice",
          "type": "uint256"
        },
        {
          "internalType": "uint256",
          "name": "_buyNowPrice",
          "type": "uint256"
        }
      ],
      "name": "createAuction",
      "outputs": [],
      "stateMutability": "nonpayable",
      "type": "function"
    },
    {
      "inputs": [
        {
          "internalType": "uint256",
          "name": "_auctionId",
          "type": "uint256"
        }
      ],
      "name": "endAuction",
      "outputs": [],
      "stateMutability": "nonpayable",
      "type": "function"
    },
    {
      "inputs": [
        {
          "internalType": "uint256",
          "name": "_auctionId",
          "type": "uint256"
        }
      ],
      "name": "getAuction",
      "outputs": [
        {
          "components": [
            {
              "internalType": "address payable",
              "name": "seller",
              "type": "address"
            },
            {
              "internalType": "uint256",
              "name": "nftTokenId",
              "type": "uint256"
            },
            {
              "internalType": "address",
              "name": "highestBidder",
              "type": "address"
            },
            {
              "internalType": "uint256",
              "name": "highestBid",
              "type": "uint256"
            },
            {
              "internalType": "uint256",
              "name": "startPrice",
              "type": "uint256"
            },
            {
              "internalType": "uint256",
              "name": "buyNowPrice",
              "type": "uint256"
            },
            {
              "internalType": "uint256",
              "name": "startedAt",
              "type": "uint256"
            },
            {
              "internalType": "uint256",
              "name": "endAt",
              "type": "uint256"
            },
            {
              "internalType": "bool",
              "name": "isSold",
              "type": "bool"
            },
            {
              "internalType": "bool",
              "name": "isEnded",
              "type": "bool"
            },
            {
              "internalType": "bool",
              "name": "isCanceled",
              "type": "bool"
            }
          ],
          "internalType": "struct Auction.AuctionItem",
          "name": "",
          "type": "tuple"
        }
      ],
      "stateMutability": "view",
      "type": "function"
    },
    {
      "inputs": [],
      "name": "getAuctionList",
      "outputs": [
        {
          "internalType": "uint256[]",
          "name": "",
          "type": "uint256[]"
        },
        {
          "components": [
            {
              "internalType": "address payable",
              "name": "seller",
              "type": "address"
            },
            {
              "internalType": "uint256",
              "name": "nftTokenId",
              "type": "uint256"
            },
            {
              "internalType": "address",
              "name": "highestBidder",
              "type": "address"
            },
            {
              "internalType": "uint256",
              "name": "highestBid",
              "type": "uint256"
            },
            {
              "internalType": "uint256",
              "name": "startPrice",
              "type": "uint256"
            },
            {
              "internalType": "uint256",
              "name": "buyNowPrice",
              "type": "uint256"
            },
            {
              "internalType": "uint256",
              "name": "startedAt",
              "type": "uint256"
            },
            {
              "internalType": "uint256",
              "name": "endAt",
              "type": "uint256"
            },
            {
              "internalType": "bool",
              "name": "isSold",
              "type": "bool"
            },
            {
              "internalType": "bool",
              "name": "isEnded",
              "type": "bool"
            },
            {
              "internalType": "bool",
              "name": "isCanceled",
              "type": "bool"
            }
          ],
          "internalType": "struct Auction.AuctionItem[]",
          "name": "",
          "type": "tuple[]"
        }
      ],
      "stateMutability": "view",
      "type": "function"
    },
    {
      "inputs": [
        {
          "internalType": "address",
          "name": "_seller",
          "type": "address"
        }
      ],
      "name": "getAuctionsOfSeller",
      "outputs": [
        {
          "internalType": "uint256[]",
          "name": "",
          "type": "uint256[]"
        },
        {
          "components": [
            {
              "internalType": "address payable",
              "name": "seller",
              "type": "address"
            },
            {
              "internalType": "uint256",
              "name": "nftTokenId",
              "type": "uint256"
            },
            {
              "internalType": "address",
              "name": "highestBidder",
              "type": "address"
            },
            {
              "internalType": "uint256",
              "name": "highestBid",
              "type": "uint256"
            },
            {
              "internalType": "uint256",
              "name": "startPrice",
              "type": "uint256"
            },
            {
              "internalType": "uint256",
              "name": "buyNowPrice",
              "type": "uint256"
            },
            {
              "internalType": "uint256",
              "name": "startedAt",
              "type": "uint256"
            },
            {
              "internalType": "uint256",
              "name": "endAt",
              "type": "uint256"
            },
            {
              "internalType": "bool",
              "name": "isSold",
              "type": "bool"
            },
            {
              "internalType": "bool",
              "name": "isEnded",
              "type": "bool"
            },
            {
              "internalType": "bool",
              "name": "isCanceled",
              "type": "bool"
            }
          ],
          "internalType": "struct Auction.AuctionItem[]",
          "name": "",
          "type": "tuple[]"
        }
      ],
      "stateMutability": "view",
      "type": "function"
    },
    {
      "inputs": [],
      "name": "getCurrentAuctionId",
      "outputs": [
        {
          "internalType": "uint256",
          "name": "",
          "type": "uint256"
        }
      ],
      "stateMutability": "view",
      "type": "function"
    },
    {
      "inputs": [],
      "name": "getOwnerBalance",
      "outputs": [
        {
          "internalType": "uint256",
          "name": "",
          "type": "uint256"
        }
      ],
      "stateMutability": "view",
      "type": "function"
    },
    {
      "inputs": [],
      "name": "getOwnerCut",
      "outputs": [
        {
          "internalType": "uint256",
          "name": "",
          "type": "uint256"
        }
      ],
      "stateMutability": "view",
      "type": "function"
    },
    {
      "inputs": [],
      "name": "owner",
      "outputs": [
        {
          "internalType": "address payable",
          "name": "",
          "type": "address"
        }
      ],
      "stateMutability": "view",
      "type": "function"
    },
    {
      "inputs": [
        {
          "internalType": "uint256",
          "name": "_auctionId",
          "type": "uint256"
        }
      ],
      "name": "refundBid",
      "outputs": [],
      "stateMutability": "nonpayable",
      "type": "function"
    },
    {
      "inputs": [
        {
          "internalType": "uint256",
          "name": "_ownerCut",
          "type": "uint256"
        }
      ],
      "name": "setOwnerCut",
      "outputs": [],
      "stateMutability": "nonpayable",
      "type": "function"
    },
    {
      "inputs": [],
      "name": "withdrawCut",
      "outputs": [],
      "stateMutability": "nonpayable",
      "type": "function"
    }
  ],
  "bytecode": "0x60a06040523480156200001157600080fd5b5060405162004c6338038062004c638339818101604052810190620000379190620000ef565b33600060016101000a81548173ffffffffffffffffffffffffffffffffffffffff021916908373ffffffffffffffffffffffffffffffffffffffff160217905550600a6001819055508073ffffffffffffffffffffffffffffffffffffffff1660808173ffffffffffffffffffffffffffffffffffffffff1660601b8152505060008060006101000a81548160ff0219169083151502179055505062000174565b600081519050620000e9816200015a565b92915050565b60006020828403121562000108576200010762000155565b5b60006200011884828501620000d8565b91505092915050565b60006200012e8262000135565b9050919050565b600073ffffffffffffffffffffffffffffffffffffffff82169050919050565b600080fd5b620001658162000121565b81146200017157600080fd5b50565b60805160601c614ab4620001af600039600081816125d1015281816129ee01528181612b8901528181612d4501526135100152614ab46000f3fe6080604052600436106101095760003560e01c806378bd793511610095578063b9a2de3a11610064578063b9a2de3a1461035a578063cda4beef14610383578063ea47ea58146103ac578063f611e4b8146103c3578063f6b4dfb41461040157610109565b806378bd79351461029e5780638da5cb5b146102db5780638ddf41371461030657806396b5a7551461033157610109565b806341a15f11116100dc57806341a15f11146101bb578063454a2ab3146101e7578063571a26a014610203578063590791f21461024a578063757de5731461027557610109565b8063024467ab1461010e57806308a0f32f1461014b578063157db3161461016757806326d29ce014610192575b600080fd5b34801561011a57600080fd5b5061013560048036038101906101309190613666565b61042c565b6040516101429190614259565b60405180910390f35b61016560048036038101906101609190613639565b610451565b005b34801561017357600080fd5b5061017c610a96565b6040516101899190614259565b60405180910390f35b34801561019e57600080fd5b506101b960048036038101906101b49190613639565b610aa7565b005b3480156101c757600080fd5b506101d06110b4565b6040516101de929190613f19565b60405180910390f35b61020160048036038101906101fc9190613639565b61132a565b005b34801561020f57600080fd5b5061022a60048036038101906102259190613639565b6119f3565b6040516102419b9a99989796959493929190613d76565b60405180910390f35b34801561025657600080fd5b5061025f611ab4565b60405161026c9190614259565b60405180910390f35b34801561028157600080fd5b5061029c60048036038101906102979190613639565b611b4d565b005b3480156102aa57600080fd5b506102c560048036038101906102c09190613639565b611c2b565b6040516102d2919061423d565b60405180910390f35b3480156102e757600080fd5b506102f0611e0c565b6040516102fd9190613d32565b60405180910390f35b34801561031257600080fd5b5061031b611e32565b6040516103289190614259565b60405180910390f35b34801561033d57600080fd5b5061035860048036038101906103539190613639565b611e3c565b005b34801561036657600080fd5b50610381600480360381019061037c9190613639565b61270c565b005b34801561038f57600080fd5b506103aa60048036038101906103a591906136a6565b612ca6565b005b3480156103b857600080fd5b506103c1612ffc565b005b3480156103cf57600080fd5b506103ea60048036038101906103e5919061360c565b613166565b6040516103f8929190613f19565b60405180910390f35b34801561040d57600080fd5b5061041661350e565b6040516104239190613fa2565b60405180910390f35b6005602052816000526040600020602052806000526040600020600091509150505481565b80600060046000838152602001908152602001600020604051806101600160405290816000820160009054906101000a900473ffffffffffffffffffffffffffffffffffffffff1673ffffffffffffffffffffffffffffffffffffffff1673ffffffffffffffffffffffffffffffffffffffff168152602001600182015481526020016002820160009054906101000a900473ffffffffffffffffffffffffffffffffffffffff1673ffffffffffffffffffffffffffffffffffffffff1673ffffffffffffffffffffffffffffffffffffffff16815260200160038201548152602001600482015481526020016005820154815260200160068201548152602001600782015481526020016008820160009054906101000a900460ff161515151581526020016008820160019054906101000a900460ff161515151581526020016008820160029054906101000a900460ff16151515158152505090508060e001514210806105c95750600015158161014001511515145b610608576040517f08c379a00000000000000000000000000000000000000000000000000000000081526004016105ff9061411d565b60405180910390fd5b82600060046000838152602001908152602001600020604051806101600160405290816000820160009054906101000a900473ffffffffffffffffffffffffffffffffffffffff1673ffffffffffffffffffffffffffffffffffffffff1673ffffffffffffffffffffffffffffffffffffffff168152602001600182015481526020016002820160009054906101000a900473ffffffffffffffffffffffffffffffffffffffff1673ffffffffffffffffffffffffffffffffffffffff1673ffffffffffffffffffffffffffffffffffffffff16815260200160038201548152602001600482015481526020016005820154815260200160068201548152602001600782015481526020016008820160009054906101000a900460ff161515151581526020016008820160019054906101000a900460ff161515151581526020016008820160029054906101000a900460ff16151515158152505090508060c0015142116107ab576040517f08c379a00000000000000000000000000000000000000000000000000000000081526004016107a29061407d565b60405180910390fd5b600073ffffffffffffffffffffffffffffffffffffffff166107cc86611c2b565b6000015173ffffffffffffffffffffffffffffffffffffffff161415610827576040517f08c379a000000000000000000000000000000000000000000000000000000000815260040161081e906140bd565b60405180910390fd5b60006004600087815260200190815260200160002090508060000160009054906101000a900473ffffffffffffffffffffffffffffffffffffffff1673ffffffffffffffffffffffffffffffffffffffff163373ffffffffffffffffffffffffffffffffffffffff1614156108d1576040517f08c379a00000000000000000000000000000000000000000000000000000000081526004016108c89061409d565b60405180910390fd5b80600501543414610917576040517f08c379a000000000000000000000000000000000000000000000000000000000815260040161090e9061421d565b60405180910390fd5b600073ffffffffffffffffffffffffffffffffffffffff168160020160009054906101000a900473ffffffffffffffffffffffffffffffffffffffff1673ffffffffffffffffffffffffffffffffffffffff16146109ff5780600301546005600088815260200190815260200160002060008360020160009054906101000a900473ffffffffffffffffffffffffffffffffffffffff1673ffffffffffffffffffffffffffffffffffffffff1673ffffffffffffffffffffffffffffffffffffffff16815260200190815260200160002060008282546109f79190614302565b925050819055505b338160020160006101000a81548173ffffffffffffffffffffffffffffffffffffffff021916908373ffffffffffffffffffffffffffffffffffffffff160217905550348160030181905550857fc6e7970c6cb7febd13366f7311d32d8bd060b24e4d5e083159ee42d8f3fdaa843334604051610a7d929190613e8f565b60405180910390a2610a8e8661270c565b505050505050565b6000610aa26003613532565b905090565b60008054906101000a900460ff1615610af5576040517f08c379a0000000000000000000000000000000000000000000000000000000008152600401610aec90613fdd565b60405180910390fd5b60016000806101000a81548160ff02191690831515021790555080600060046000838152602001908152602001600020604051806101600160405290816000820160009054906101000a900473ffffffffffffffffffffffffffffffffffffffff1673ffffffffffffffffffffffffffffffffffffffff1673ffffffffffffffffffffffffffffffffffffffff168152602001600182015481526020016002820160009054906101000a900473ffffffffffffffffffffffffffffffffffffffff1673ffffffffffffffffffffffffffffffffffffffff1673ffffffffffffffffffffffffffffffffffffffff16815260200160038201548152602001600482015481526020016005820154815260200160068201548152602001600782015481526020016008820160009054906101000a900460ff161515151581526020016008820160019054906101000a900460ff161515151581526020016008820160029054906101000a900460ff16151515158152505090508060e00151421180610c875750600115158161014001511515145b610cc6576040517f08c379a0000000000000000000000000000000000000000000000000000000008152600401610cbd906141fd565b60405180910390fd5b600073ffffffffffffffffffffffffffffffffffffffff16610ce784611c2b565b6000015173ffffffffffffffffffffffffffffffffffffffff161415610d42576040517f08c379a0000000000000000000000000000000000000000000000000000000008152600401610d39906140bd565b60405180910390fd5b600060046000858152602001908152602001600020604051806101600160405290816000820160009054906101000a900473ffffffffffffffffffffffffffffffffffffffff1673ffffffffffffffffffffffffffffffffffffffff1673ffffffffffffffffffffffffffffffffffffffff168152602001600182015481526020016002820160009054906101000a900473ffffffffffffffffffffffffffffffffffffffff1673ffffffffffffffffffffffffffffffffffffffff1673ffffffffffffffffffffffffffffffffffffffff16815260200160038201548152602001600482015481526020016005820154815260200160068201548152602001600782015481526020016008820160009054906101000a900460ff161515151581526020016008820160019054906101000a900460ff161515151581526020016008820160029054906101000a900460ff16151515158152505090506000151581610140015115151415610f2457806040015173ffffffffffffffffffffffffffffffffffffffff163373ffffffffffffffffffffffffffffffffffffffff161415610f23576040517f08c379a0000000000000000000000000000000000000000000000000000000008152600401610f1a906141dd565b60405180910390fd5b5b60006005600086815260200190815260200160002060003373ffffffffffffffffffffffffffffffffffffffff1673ffffffffffffffffffffffffffffffffffffffff16815260200190815260200160002054905060008111610fbc576040517f08c379a0000000000000000000000000000000000000000000000000000000008152600401610fb39061413d565b60405180910390fd5b60006005600087815260200190815260200160002060003373ffffffffffffffffffffffffffffffffffffffff1673ffffffffffffffffffffffffffffffffffffffff168152602001908152602001600020819055503373ffffffffffffffffffffffffffffffffffffffff166108fc829081150290604051600060405180830381858888f19350505050158015611058573d6000803e3d6000fd5b50847fcdb0a10013829235eab1e9a08a4464b7e71ada685aaff2df9200efa900333322338360405161108b929190613e8f565b60405180910390a25050505060008060006101000a81548160ff02191690831515021790555050565b60608060006110c1610a96565b905060008167ffffffffffffffff8111156110df576110de61458f565b5b60405190808252806020026020018201604052801561111857816020015b611105613556565b8152602001906001900390816110fd5790505b50905060008267ffffffffffffffff8111156111375761113661458f565b5b6040519080825280602002602001820160405280156111655781602001602082028036833780820191505090505b50905060005b8381101561131c5760046000828152602001908152602001600020604051806101600160405290816000820160009054906101000a900473ffffffffffffffffffffffffffffffffffffffff1673ffffffffffffffffffffffffffffffffffffffff1673ffffffffffffffffffffffffffffffffffffffff168152602001600182015481526020016002820160009054906101000a900473ffffffffffffffffffffffffffffffffffffffff1673ffffffffffffffffffffffffffffffffffffffff1673ffffffffffffffffffffffffffffffffffffffff16815260200160038201548152602001600482015481526020016005820154815260200160068201548152602001600782015481526020016008820160009054906101000a900460ff161515151581526020016008820160019054906101000a900460ff161515151581526020016008820160029054906101000a900460ff1615151515815250508382815181106112de576112dd614560565b5b6020026020010181905250808282815181106112fd576112fc614560565b5b6020026020010181815250508080611314906144b9565b91505061116b565b508082945094505050509091565b80600060046000838152602001908152602001600020604051806101600160405290816000820160009054906101000a900473ffffffffffffffffffffffffffffffffffffffff1673ffffffffffffffffffffffffffffffffffffffff1673ffffffffffffffffffffffffffffffffffffffff168152602001600182015481526020016002820160009054906101000a900473ffffffffffffffffffffffffffffffffffffffff1673ffffffffffffffffffffffffffffffffffffffff1673ffffffffffffffffffffffffffffffffffffffff16815260200160038201548152602001600482015481526020016005820154815260200160068201548152602001600782015481526020016008820160009054906101000a900460ff161515151581526020016008820160019054906101000a900460ff161515151581526020016008820160029054906101000a900460ff16151515158152505090508060e001514210806114a25750600015158161014001511515145b6114e1576040517f08c379a00000000000000000000000000000000000000000000000000000000081526004016114d89061411d565b60405180910390fd5b82600060046000838152602001908152602001600020604051806101600160405290816000820160009054906101000a900473ffffffffffffffffffffffffffffffffffffffff1673ffffffffffffffffffffffffffffffffffffffff1673ffffffffffffffffffffffffffffffffffffffff168152602001600182015481526020016002820160009054906101000a900473ffffffffffffffffffffffffffffffffffffffff1673ffffffffffffffffffffffffffffffffffffffff1673ffffffffffffffffffffffffffffffffffffffff16815260200160038201548152602001600482015481526020016005820154815260200160068201548152602001600782015481526020016008820160009054906101000a900460ff161515151581526020016008820160019054906101000a900460ff161515151581526020016008820160029054906101000a900460ff16151515158152505090508060c001514211611684576040517f08c379a000000000000000000000000000000000000000000000000000000000815260040161167b9061407d565b60405180910390fd5b600073ffffffffffffffffffffffffffffffffffffffff166116a586611c2b565b6000015173ffffffffffffffffffffffffffffffffffffffff161415611700576040517f08c379a00000000000000000000000000000000000000000000000000000000081526004016116f7906140bd565b60405180910390fd5b60006004600087815260200190815260200160002090508060030154341161175d576040517f08c379a000000000000000000000000000000000000000000000000000000000815260040161175490613ffd565b60405180910390fd5b80600401543410156117a4576040517f08c379a000000000000000000000000000000000000000000000000000000000815260040161179b906140fd565b60405180910390fd5b8060000160009054906101000a900473ffffffffffffffffffffffffffffffffffffffff1673ffffffffffffffffffffffffffffffffffffffff163373ffffffffffffffffffffffffffffffffffffffff161415611837576040517f08c379a000000000000000000000000000000000000000000000000000000000815260040161182e9061409d565b60405180910390fd5b8060050154341061187d576040517f08c379a0000000000000000000000000000000000000000000000000000000008152600401611874906140dd565b60405180910390fd5b600073ffffffffffffffffffffffffffffffffffffffff168160020160009054906101000a900473ffffffffffffffffffffffffffffffffffffffff1673ffffffffffffffffffffffffffffffffffffffff16146119655780600301546005600088815260200190815260200160002060008360020160009054906101000a900473ffffffffffffffffffffffffffffffffffffffff1673ffffffffffffffffffffffffffffffffffffffff1673ffffffffffffffffffffffffffffffffffffffff168152602001908152602001600020600082825461195d9190614302565b925050819055505b338160020160006101000a81548173ffffffffffffffffffffffffffffffffffffffff021916908373ffffffffffffffffffffffffffffffffffffffff160217905550348160030181905550857fb8d756f2d1da4663767eb4d559780ace84f2f65a421a60ddcb47e8b2e5d2fd2633346040516119e3929190613e8f565b60405180910390a2505050505050565b60046020528060005260406000206000915090508060000160009054906101000a900473ffffffffffffffffffffffffffffffffffffffff16908060010154908060020160009054906101000a900473ffffffffffffffffffffffffffffffffffffffff16908060030154908060040154908060050154908060060154908060070154908060080160009054906101000a900460ff16908060080160019054906101000a900460ff16908060080160029054906101000a900460ff1690508b565b60008060019054906101000a900473ffffffffffffffffffffffffffffffffffffffff1673ffffffffffffffffffffffffffffffffffffffff163373ffffffffffffffffffffffffffffffffffffffff1614611b45576040517f08c379a0000000000000000000000000000000000000000000000000000000008152600401611b3c9061419d565b60405180910390fd5b600254905090565b600060019054906101000a900473ffffffffffffffffffffffffffffffffffffffff1673ffffffffffffffffffffffffffffffffffffffff163373ffffffffffffffffffffffffffffffffffffffff1614611bdd576040517f08c379a0000000000000000000000000000000000000000000000000000000008152600401611bd49061419d565b60405180910390fd5b6064811115611c21576040517f08c379a0000000000000000000000000000000000000000000000000000000008152600401611c18906141bd565b60405180910390fd5b8060018190555050565b611c33613556565b600060046000848152602001908152602001600020604051806101600160405290816000820160009054906101000a900473ffffffffffffffffffffffffffffffffffffffff1673ffffffffffffffffffffffffffffffffffffffff1673ffffffffffffffffffffffffffffffffffffffff168152602001600182015481526020016002820160009054906101000a900473ffffffffffffffffffffffffffffffffffffffff1673ffffffffffffffffffffffffffffffffffffffff1673ffffffffffffffffffffffffffffffffffffffff16815260200160038201548152602001600482015481526020016005820154815260200160068201548152602001600782015481526020016008820160009054906101000a900460ff161515151581526020016008820160019054906101000a900460ff161515151581526020016008820160029054906101000a900460ff1615151515815250509050600073ffffffffffffffffffffffffffffffffffffffff16816000015173ffffffffffffffffffffffffffffffffffffffff161415611e03576040517f08c379a0000000000000000000000000000000000000000000000000000000008152600401611dfa906140bd565b60405180910390fd5b80915050919050565b600060019054906101000a900473ffffffffffffffffffffffffffffffffffffffff1681565b6000600154905090565b60008054906101000a900460ff1615611e8a576040517f08c379a0000000000000000000000000000000000000000000000000000000008152600401611e8190613fdd565b60405180910390fd5b60016000806101000a81548160ff02191690831515021790555080600060046000838152602001908152602001600020604051806101600160405290816000820160009054906101000a900473ffffffffffffffffffffffffffffffffffffffff1673ffffffffffffffffffffffffffffffffffffffff1673ffffffffffffffffffffffffffffffffffffffff168152602001600182015481526020016002820160009054906101000a900473ffffffffffffffffffffffffffffffffffffffff1673ffffffffffffffffffffffffffffffffffffffff1673ffffffffffffffffffffffffffffffffffffffff16815260200160038201548152602001600482015481526020016005820154815260200160068201548152602001600782015481526020016008820160009054906101000a900460ff161515151581526020016008820160019054906101000a900460ff161515151581526020016008820160029054906101000a900460ff1615151515815250509050806000015173ffffffffffffffffffffffffffffffffffffffff163373ffffffffffffffffffffffffffffffffffffffff1614612073576040517f08c379a000000000000000000000000000000000000000000000000000000000815260040161206a9061417d565b60405180910390fd5b82600060046000838152602001908152602001600020604051806101600160405290816000820160009054906101000a900473ffffffffffffffffffffffffffffffffffffffff1673ffffffffffffffffffffffffffffffffffffffff1673ffffffffffffffffffffffffffffffffffffffff168152602001600182015481526020016002820160009054906101000a900473ffffffffffffffffffffffffffffffffffffffff1673ffffffffffffffffffffffffffffffffffffffff1673ffffffffffffffffffffffffffffffffffffffff16815260200160038201548152602001600482015481526020016005820154815260200160068201548152602001600782015481526020016008820160009054906101000a900460ff161515151581526020016008820160019054906101000a900460ff161515151581526020016008820160029054906101000a900460ff16151515158152505090508060e001514210806121eb5750600015158161014001511515145b61222a576040517f08c379a00000000000000000000000000000000000000000000000000000000081526004016122219061411d565b60405180910390fd5b84600060046000838152602001908152602001600020604051806101600160405290816000820160009054906101000a900473ffffffffffffffffffffffffffffffffffffffff1673ffffffffffffffffffffffffffffffffffffffff1673ffffffffffffffffffffffffffffffffffffffff168152602001600182015481526020016002820160009054906101000a900473ffffffffffffffffffffffffffffffffffffffff1673ffffffffffffffffffffffffffffffffffffffff1673ffffffffffffffffffffffffffffffffffffffff16815260200160038201548152602001600482015481526020016005820154815260200160068201548152602001600782015481526020016008820160009054906101000a900460ff161515151581526020016008820160019054906101000a900460ff161515151581526020016008820160029054906101000a900460ff16151515158152505090508060c0015142116123cd576040517f08c379a00000000000000000000000000000000000000000000000000000000081526004016123c49061407d565b60405180910390fd5b600073ffffffffffffffffffffffffffffffffffffffff166123ee88611c2b565b6000015173ffffffffffffffffffffffffffffffffffffffff161415612449576040517f08c379a0000000000000000000000000000000000000000000000000000000008152600401612440906140bd565b60405180910390fd5b6000600460008981526020019081526020016000209050600015158160080160029054906101000a900460ff161515146124b8576040517f08c379a00000000000000000000000000000000000000000000000000000000081526004016124af9061403d565b60405180910390fd5b60018160080160026101000a81548160ff02191690831515021790555060018160080160016101000a81548160ff0219169083151502179055508060030154600560008a815260200190815260200160002060008360020160009054906101000a900473ffffffffffffffffffffffffffffffffffffffff1673ffffffffffffffffffffffffffffffffffffffff1673ffffffffffffffffffffffffffffffffffffffff168152602001908152602001600020600082825461257a9190614302565b9250508190555060008160020160006101000a81548173ffffffffffffffffffffffffffffffffffffffff021916908373ffffffffffffffffffffffffffffffffffffffff160217905550600081600301819055507f000000000000000000000000000000000000000000000000000000000000000073ffffffffffffffffffffffffffffffffffffffff166342842e0e308360000160009054906101000a900473ffffffffffffffffffffffffffffffffffffffff1684600101546040518463ffffffff1660e01b815260040161265493929190613e21565b600060405180830381600087803b15801561266e57600080fd5b505af1158015612682573d6000803e3d6000fd5b50505050877fc326dcfb5d4e924f5e3e717c0f667b0eecb5abb73fc0b33236b6107c1fd48a578260000160009054906101000a900473ffffffffffffffffffffffffffffffffffffffff1683600101546040516126e0929190613d4d565b60405180910390a25050505050505060008060006101000a81548160ff02191690831515021790555050565b60008054906101000a900460ff161561275a576040517f08c379a000000000000000000000000000000000000000000000000000000000815260040161275190613fdd565b60405180910390fd5b60016000806101000a81548160ff021916908315150217905550600073ffffffffffffffffffffffffffffffffffffffff1661279582611c2b565b6000015173ffffffffffffffffffffffffffffffffffffffff1614156127f0576040517f08c379a00000000000000000000000000000000000000000000000000000000081526004016127e7906140bd565b60405180910390fd5b6000600460008381526020019081526020016000209050806005015481600301541415612825574281600701819055506128fe565b8060000160009054906101000a900473ffffffffffffffffffffffffffffffffffffffff1673ffffffffffffffffffffffffffffffffffffffff163373ffffffffffffffffffffffffffffffffffffffff16146128b7576040517f08c379a00000000000000000000000000000000000000000000000000000000081526004016128ae9061417d565b60405180910390fd5b806007015442116128fd576040517f08c379a00000000000000000000000000000000000000000000000000000000081526004016128f49061401d565b60405180910390fd5b5b60018160080160016101000a81548160ff021916908315150217905550600073ffffffffffffffffffffffffffffffffffffffff168160020160009054906101000a900473ffffffffffffffffffffffffffffffffffffffff1673ffffffffffffffffffffffffffffffffffffffff1614612b875760008160030154905060006064600154606461298f91906143e3565b8361299a9190614389565b6129a49190614358565b9050600081836129b491906143e3565b905080600260008282546129c89190614302565b9250508190555060018460080160006101000a81548160ff0219169083151502179055507f000000000000000000000000000000000000000000000000000000000000000073ffffffffffffffffffffffffffffffffffffffff166342842e0e308660020160009054906101000a900473ffffffffffffffffffffffffffffffffffffffff1687600101546040518463ffffffff1660e01b8152600401612a7193929190613e58565b600060405180830381600087803b158015612a8b57600080fd5b505af1158015612a9f573d6000803e3d6000fd5b505050508360000160009054906101000a900473ffffffffffffffffffffffffffffffffffffffff1673ffffffffffffffffffffffffffffffffffffffff166108fc839081150290604051600060405180830381858888f19350505050158015612b0d573d6000803e3d6000fd5b50847f01bc16a4922271348d17e96c52df20af59df716b0c6c1c04ab832a4d61b0c73e8560080160009054906101000a900460ff168660020160009054906101000a900473ffffffffffffffffffffffffffffffffffffffff1686604051612b7793929190613f6b565b60405180910390a2505050612c88565b7f000000000000000000000000000000000000000000000000000000000000000073ffffffffffffffffffffffffffffffffffffffff166342842e0e308360000160009054906101000a900473ffffffffffffffffffffffffffffffffffffffff1684600101546040518463ffffffff1660e01b8152600401612c0c93929190613e21565b600060405180830381600087803b158015612c2657600080fd5b505af1158015612c3a573d6000803e3d6000fd5b50505050817f1bc14b9fc846e9dc78e6bed8c6bfe5690ba26ede6843e216033c00c8779b11d88260080160009054906101000a900460ff16604051612c7f9190613f50565b60405180910390a25b5060008060006101000a81548160ff02191690831515021790555050565b808210612ce8576040517f08c379a0000000000000000000000000000000000000000000000000000000008152600401612cdf9061405d565b60405180910390fd5b60008211612d2b576040517f08c379a0000000000000000000000000000000000000000000000000000000008152600401612d2290613fbd565b60405180910390fd5b6000612d376003613532565b9050612d436003613540565b7f000000000000000000000000000000000000000000000000000000000000000073ffffffffffffffffffffffffffffffffffffffff166323b872dd3330876040518463ffffffff1660e01b8152600401612da093929190613e58565b600060405180830381600087803b158015612dba57600080fd5b505af1158015612dce573d6000803e3d6000fd5b505050506040518061016001604052803373ffffffffffffffffffffffffffffffffffffffff168152602001858152602001600073ffffffffffffffffffffffffffffffffffffffff1681526020016000815260200184815260200183815260200142815260200162093a8042612e459190614302565b8152602001600015158152602001600015158152602001600015158152506004600083815260200190815260200160002060008201518160000160006101000a81548173ffffffffffffffffffffffffffffffffffffffff021916908373ffffffffffffffffffffffffffffffffffffffff1602179055506020820151816001015560408201518160020160006101000a81548173ffffffffffffffffffffffffffffffffffffffff021916908373ffffffffffffffffffffffffffffffffffffffff160217905550606082015181600301556080820151816004015560a0820151816005015560c0820151816006015560e082015181600701556101008201518160080160006101000a81548160ff0219169083151502179055506101208201518160080160016101000a81548160ff0219169083151502179055506101408201518160080160026101000a81548160ff021916908315150217905550905050807f3605d71e596cf139c8a211e38143afc7034e2158d00d864d7df7e91882b5bcba338686864262093a8042612fdc9190614302565b604051612fee96959493929190613eb8565b60405180910390a250505050565b600060019054906101000a900473ffffffffffffffffffffffffffffffffffffffff1673ffffffffffffffffffffffffffffffffffffffff163373ffffffffffffffffffffffffffffffffffffffff161461308c576040517f08c379a00000000000000000000000000000000000000000000000000000000081526004016130839061419d565b60405180910390fd5b60008060019054906101000a900473ffffffffffffffffffffffffffffffffffffffff1673ffffffffffffffffffffffffffffffffffffffff166002546040516130d590613d1d565b60006040518083038185875af1925050503d8060008114613112576040519150601f19603f3d011682016040523d82523d6000602084013e613117565b606091505b505090508061315b576040517f08c379a00000000000000000000000000000000000000000000000000000000081526004016131529061415d565b60405180910390fd5b600060028190555050565b60608060006131756003613532565b67ffffffffffffffff81111561318e5761318d61458f565b5b6040519080825280602002602001820160405280156131c757816020015b6131b4613556565b8152602001906001900390816131ac5790505b5090506000805b6131d86003613532565b8110156133e1578573ffffffffffffffffffffffffffffffffffffffff166004600083815260200190815260200160002060000160009054906101000a900473ffffffffffffffffffffffffffffffffffffffff1673ffffffffffffffffffffffffffffffffffffffff1614156133ce5760046000828152602001908152602001600020604051806101600160405290816000820160009054906101000a900473ffffffffffffffffffffffffffffffffffffffff1673ffffffffffffffffffffffffffffffffffffffff1673ffffffffffffffffffffffffffffffffffffffff168152602001600182015481526020016002820160009054906101000a900473ffffffffffffffffffffffffffffffffffffffff1673ffffffffffffffffffffffffffffffffffffffff1673ffffffffffffffffffffffffffffffffffffffff16815260200160038201548152602001600482015481526020016005820154815260200160068201548152602001600782015481526020016008820160009054906101000a900460ff161515151581526020016008820160019054906101000a900460ff161515151581526020016008820160029054906101000a900460ff1615151515815250508383815181106133b4576133b3614560565b5b602002602001018190525081806133ca906144b9565b9250505b80806133d9906144b9565b9150506131ce565b5060008167ffffffffffffffff8111156133fe576133fd61458f565b5b60405190808252806020026020018201604052801561343757816020015b613424613556565b81526020019060019003908161341c5790505b50905060008267ffffffffffffffff8111156134565761345561458f565b5b6040519080825280602002602001820160405280156134845781602001602082028036833780820191505090505b50905060005b838110156134fe578481815181106134a5576134a4614560565b5b60200260200101518382815181106134c0576134bf614560565b5b6020026020010181905250808282815181106134df576134de614560565b5b60200260200101818152505080806134f6906144b9565b91505061348a565b5080829550955050505050915091565b7f000000000000000000000000000000000000000000000000000000000000000081565b600081600001549050919050565b6001816000016000828254019250508190555050565b604051806101600160405280600073ffffffffffffffffffffffffffffffffffffffff16815260200160008152602001600073ffffffffffffffffffffffffffffffffffffffff16815260200160008152602001600081526020016000815260200160008152602001600081526020016000151581526020016000151581526020016000151581525090565b6000813590506135f181614a50565b92915050565b60008135905061360681614a67565b92915050565b600060208284031215613622576136216145be565b5b6000613630848285016135e2565b91505092915050565b60006020828403121561364f5761364e6145be565b5b600061365d848285016135f7565b91505092915050565b6000806040838503121561367d5761367c6145be565b5b600061368b858286016135f7565b925050602061369c858286016135e2565b9150509250929050565b6000806000606084860312156136bf576136be6145be565b5b60006136cd868287016135f7565b93505060206136de868287016135f7565b92505060406136ef868287016135f7565b9150509250925092565b60006137058383613b3d565b6101608301905092915050565b600061371e8383613cff565b60208301905092915050565b61373381614471565b82525050565b61374281614429565b82525050565b61375181614429565b82525050565b61376081614417565b82525050565b61376f81614417565b82525050565b600061378082614294565b61378a81856142c4565b935061379583614274565b8060005b838110156137c65781516137ad88826136f9565b97506137b8836142aa565b925050600181019050613799565b5085935050505092915050565b60006137de8261429f565b6137e881856142d5565b93506137f383614284565b8060005b8381101561382457815161380b8882613712565b9750613816836142b7565b9250506001810190506137f7565b5085935050505092915050565b61383a8161443b565b82525050565b6138498161443b565b82525050565b61385881614483565b82525050565b600061386b6023836142f1565b9150613876826145c3565b604082019050919050565b600061388e6011836142f1565b915061389982614612565b602082019050919050565b60006138b1601e836142f1565b91506138bc8261463b565b602082019050919050565b60006138d4604d836142f1565b91506138df82614664565b606082019050919050565b60006138f76022836142f1565b9150613902826146d9565b604082019050919050565b600061391a602c836142f1565b915061392582614728565b604082019050919050565b600061393d601c836142f1565b915061394882614777565b602082019050919050565b60006139606023836142f1565b915061396b826147a0565b604082019050919050565b60006139836016836142f1565b915061398e826147ef565b602082019050919050565b60006139a66016836142f1565b91506139b182614818565b602082019050919050565b60006139c9602c836142f1565b91506139d482614841565b604082019050919050565b60006139ec601a836142f1565b91506139f782614890565b602082019050919050565b6000613a0f601c836142f1565b9150613a1a826148b9565b602082019050919050565b6000613a326000836142e6565b9150613a3d826148e2565b600082019050919050565b6000613a556010836142f1565b9150613a60826148e5565b602082019050919050565b6000613a786027836142f1565b9150613a838261490e565b604082019050919050565b6000613a9b6016836142f1565b9150613aa68261495d565b602082019050919050565b6000613abe6020836142f1565b9150613ac982614986565b602082019050919050565b6000613ae1601b836142f1565b9150613aec826149af565b602082019050919050565b6000613b04601a836142f1565b9150613b0f826149d8565b602082019050919050565b6000613b276027836142f1565b9150613b3282614a01565b604082019050919050565b61016082016000820151613b546000850182613739565b506020820151613b676020850182613cff565b506040820151613b7a6040850182613757565b506060820151613b8d6060850182613cff565b506080820151613ba06080850182613cff565b5060a0820151613bb360a0850182613cff565b5060c0820151613bc660c0850182613cff565b5060e0820151613bd960e0850182613cff565b50610100820151613bee610100850182613831565b50610120820151613c03610120850182613831565b50610140820151613c18610140850182613831565b50505050565b61016082016000820151613c356000850182613739565b506020820151613c486020850182613cff565b506040820151613c5b6040850182613757565b506060820151613c6e6060850182613cff565b506080820151613c816080850182613cff565b5060a0820151613c9460a0850182613cff565b5060c0820151613ca760c0850182613cff565b5060e0820151613cba60e0850182613cff565b50610100820151613ccf610100850182613831565b50610120820151613ce4610120850182613831565b50610140820151613cf9610140850182613831565b50505050565b613d0881614467565b82525050565b613d1781614467565b82525050565b6000613d2882613a25565b9150819050919050565b6000602082019050613d476000830184613748565b92915050565b6000604082019050613d62600083018561372a565b613d6f6020830184613d0e565b9392505050565b600061016082019050613d8c600083018e613748565b613d99602083018d613d0e565b613da6604083018c613766565b613db3606083018b613d0e565b613dc0608083018a613d0e565b613dcd60a0830189613d0e565b613dda60c0830188613d0e565b613de760e0830187613d0e565b613df5610100830186613840565b613e03610120830185613840565b613e11610140830184613840565b9c9b505050505050505050505050565b6000606082019050613e366000830186613766565b613e43602083018561372a565b613e506040830184613d0e565b949350505050565b6000606082019050613e6d6000830186613766565b613e7a6020830185613766565b613e876040830184613d0e565b949350505050565b6000604082019050613ea46000830185613766565b613eb16020830184613d0e565b9392505050565b600060c082019050613ecd6000830189613766565b613eda6020830188613d0e565b613ee76040830187613d0e565b613ef46060830186613d0e565b613f016080830185613d0e565b613f0e60a0830184613d0e565b979650505050505050565b60006040820190508181036000830152613f3381856137d3565b90508181036020830152613f478184613775565b90509392505050565b6000602082019050613f656000830184613840565b92915050565b6000606082019050613f806000830186613840565b613f8d6020830185613766565b613f9a6040830184613d0e565b949350505050565b6000602082019050613fb7600083018461384f565b92915050565b60006020820190508181036000830152613fd68161385e565b9050919050565b60006020820190508181036000830152613ff681613881565b9050919050565b60006020820190508181036000830152614016816138a4565b9050919050565b60006020820190508181036000830152614036816138c7565b9050919050565b60006020820190508181036000830152614056816138ea565b9050919050565b600060208201905081810360008301526140768161390d565b9050919050565b6000602082019050818103600083015261409681613930565b9050919050565b600060208201905081810360008301526140b681613953565b9050919050565b600060208201905081810360008301526140d681613976565b9050919050565b600060208201905081810360008301526140f681613999565b9050919050565b60006020820190508181036000830152614116816139bc565b9050919050565b60006020820190508181036000830152614136816139df565b9050919050565b6000602082019050818103600083015261415681613a02565b9050919050565b6000602082019050818103600083015261417681613a48565b9050919050565b6000602082019050818103600083015261419681613a6b565b9050919050565b600060208201905081810360008301526141b681613a8e565b9050919050565b600060208201905081810360008301526141d681613ab1565b9050919050565b600060208201905081810360008301526141f681613ad4565b9050919050565b6000602082019050818103600083015261421681613af7565b9050919050565b6000602082019050818103600083015261423681613b1a565b9050919050565b6000610160820190506142536000830184613c1e565b92915050565b600060208201905061426e6000830184613d0e565b92915050565b6000819050602082019050919050565b6000819050602082019050919050565b600081519050919050565b600081519050919050565b6000602082019050919050565b6000602082019050919050565b600082825260208201905092915050565b600082825260208201905092915050565b600081905092915050565b600082825260208201905092915050565b600061430d82614467565b915061431883614467565b9250827fffffffffffffffffffffffffffffffffffffffffffffffffffffffffffffffff0382111561434d5761434c614502565b5b828201905092915050565b600061436382614467565b915061436e83614467565b92508261437e5761437d614531565b5b828204905092915050565b600061439482614467565b915061439f83614467565b9250817fffffffffffffffffffffffffffffffffffffffffffffffffffffffffffffffff04831182151516156143d8576143d7614502565b5b828202905092915050565b60006143ee82614467565b91506143f983614467565b92508282101561440c5761440b614502565b5b828203905092915050565b600061442282614447565b9050919050565b600061443482614447565b9050919050565b60008115159050919050565b600073ffffffffffffffffffffffffffffffffffffffff82169050919050565b6000819050919050565b600061447c82614495565b9050919050565b600061448e82614495565b9050919050565b60006144a0826144a7565b9050919050565b60006144b282614447565b9050919050565b60006144c482614467565b91507fffffffffffffffffffffffffffffffffffffffffffffffffffffffffffffffff8214156144f7576144f6614502565b5b600182019050919050565b7f4e487b7100000000000000000000000000000000000000000000000000000000600052601160045260246000fd5b7f4e487b7100000000000000000000000000000000000000000000000000000000600052601260045260246000fd5b7f4e487b7100000000000000000000000000000000000000000000000000000000600052603260045260246000fd5b7f4e487b7100000000000000000000000000000000000000000000000000000000600052604160045260246000fd5b600080fd5b7f5374617274207072696365206d7573742062652067726561746572207468616e60008201527f20302e0000000000000000000000000000000000000000000000000000000000602082015250565b7f4e6f2072656e74727920616c6c6f776564000000000000000000000000000000600082015250565b7f546865726520697320616c7265616479206120686967686572206269642e0000600082015250565b7f41756374696f6e20686173206e6f7420656e646564207965742e20546f20636160008201527f6e63656c207468652061756374696f6e2c207573652063616e63656c4175637460208201527f696f6e2066756e6374696f6e2e00000000000000000000000000000000000000604082015250565b7f41756374696f6e2068617320616c7265616479206265656e2063616e63656c6560008201527f642e000000000000000000000000000000000000000000000000000000000000602082015250565b7f5374617274207072696365206d757374206265206c657373207468616e20627560008201527f79206e6f772070726963652e0000000000000000000000000000000000000000602082015250565b7f41756374696f6e20686173206e6f742073746172746564207965742e00000000600082015250565b7f596f752063616e6e6f7420626964206f6e20796f7572206f776e20617563746960008201527f6f6e2e0000000000000000000000000000000000000000000000000000000000602082015250565b7f41756374696f6e20646f6573206e6f7420657869737400000000000000000000600082015250565b7f427579206e6f7720707269636520726561636865642e00000000000000000000600082015250565b7f42696420616d6f756e74206d7573742062652067726561746572207468616e2060008201527f73746172742070726963652e0000000000000000000000000000000000000000602082015250565b7f41756374696f6e2068617320616c726561647920656e6465642e000000000000600082015250565b7f596f752068617665206e6f2062696420746f2077697468647261772e00000000600082015250565b50565b7f5472616e73666572206661696c65642e00000000000000000000000000000000600082015250565b7f596f7520617265206e6f74207468652073656c6c6572206f662074686973206160008201527f756374696f6e2e00000000000000000000000000000000000000000000000000602082015250565b7f596f7520617265206e6f7420746865206f776e65722e00000000000000000000600082015250565b7f4f776e657220637574206d757374206265206c657373207468616e203130302e600082015250565b7f596f7520617265207468652068696768657374206269646465722e0000000000600082015250565b7f41756374696f6e20686173206e6f7420656e646564207965742e000000000000600082015250565b7f42696420616d6f756e74206d75737420657175616c20746f20627579206e6f7760008201527f2070726963652e00000000000000000000000000000000000000000000000000602082015250565b614a5981614417565b8114614a6457600080fd5b50565b614a7081614467565b8114614a7b57600080fd5b5056fea2646970667358221220bd17920e07e6ae38c5721ec150ab95425ed6580e9511f2b2656484dc630ddf2b64736f6c63430008070033",
  "linkReferences": {},
  "deployedLinkReferences": {}
}